:020000040800F2
:10000000984A0020817B0008F5790008F7790008FC
:10001000FF790008077A00080F7A00080000000046
:10002000000000000000000000000000D16C00088B
:10003000177A000800000000796C0008E1610008F0
:10004000AB7B0008AF7B0008B37B0008197A00087F
:10005000B77B0008BB7B0008BF7B0008C37B0008A0
:10006000C77B0008CB7B0008CF7B0008D37B000850
:10007000D77B0008DB7B0008DF7B0008E37B000800
:10008000E77B0008EB7B0008EF7B0008F37B0008B0
:100090001F7A0008F77B0008FB7B0008FF7B000845
:1000A000037C0008257A0008077C00080B7C000808
:1000B0000F7C0008137C0008177C00081B7C0008DC
:1000C0001F7C0008237C0008277C00082B7C00088C
:1000D0002F7C00082B7A0008337C0008377C00084E
:1000E0003B7C00083F7C0008437C0008477C0008FC
:1000F0004B7C00084F7C0008537C0008577C0008AC
:100100005B7C00085F7C0008637C0008677C00085B
:100110006B7C00086F7C0008737C0008777C00080B
:10012000317A00087B7C00087F7C0008837C000813
:10013000877C00088B7C00088F7C0008937C00087B
:10014000977C00089B7C00089F7C0008A37C00082B
:10015000A77C0008AB7C0008AF7C0008B37C0008DB
:10016000B77C0008BB7C0008BF7C0008C37C00088B
:10017000C77C0008CB7C0008CF7C00080000000092
:10018000D37C0008D77C00082DE9F04F0FF2A41CA7
:10019000A1B0DCE90089CDE900892A9DDFF8DC9B6C
:1001A000049100248DF843500D944FF0FF3882469F
:1001B00016461F460FE0B3462C461BF8011B049859
:1001C000D0470028049000F0A2800D98401C641EC7
:1001D0000D90F2D176193078252808D1002100221F
:1001E0000791089209910A920B910C920DE06A46D0
:1001F0004146304600F0DAFF050001D10D98A1E03C
:10020000D9D50125E6E741F0010116F8010F2028B4
:10021000F9D023280CD02B2804D02D2805D0302845
:1002200009D076E041F00201EFE741F00401ECE78C
:1002300041F00801E9E741F01001E6E70F9209E01B
:100240000F98484505DA00EB800402EB4402303A8F
:100250000F92761C3278A2F130000A28F0D3307861
:100260002E2818BFCDF8388022D116F8010F2A2881
:1002700007D138683860761C50F8042B38600E922D
:1002800016E02D280CBF761C002000220E920AE0FA
:1002900040B90E9A4A4505DA02EB820403EB4403A7
:1002A000303B0E93761C3378A3F130020A2AEFD349
:1002B000ADF8401021A0317800F082FF08B116F8A7
:1002C000010B8DF842009DF84200682804D1307877
:1002D00068280AD1622105E06C2804BF30786C28B8
:1002E00003D171218DF84210761C12A806903A466F
:1002F00016F8013B02A9504600F064F838B912AA7A
:1003000002A9504600F0C8F900287FF564AF4046C6
:1003100018E02A2892D13A683A6052F8040B3A6001
:1003200000280F9003D540420F9041F00401761C45
:1003300095E700000000000000000000686A6C748F
:100340007A4C000021B0BDE8F08F622820D06828E8
:1003500011D06A2803D06C2827D0712825D10868CD
:10036000C01D20F007000860D0E9002308300860B5
:10037000194610467047002A0A680A60106803D0C0
:10038000121D0A6000B217E0121D0A6080B217E069
:10039000002A0A680A60106803D0121D0A6040B281
:1003A0000AE0121D0A60C0B20AE0002A0A680A6068
:1003B000106803D0121D0A60C1177047121D0A6031
:1003C000002170477CB50D4611461C462E69B4F1DC
:1003D000250200F04F811C3A00F08480121F022A8F
:1003E00040F280800E3A00F00981521F59D0093A3C
:1003F00078D0921E16D0521E35D0521E022A71D9C4
:10040000121F30D0521F00F09880521E49D0521E49
:1004100000F0E280D21E00F0FF80921E41D0D21E7A
:100420003FD02DE195F83A406C2C09D06869421C08
:100430006A610A680A6052F8043B0A60335429E191
:100440000A680A6052F8043B0A6000930022019295
:100450004FF0FF332B636A46294600F098F90028D5
:1004600040F1188103E195F83A000122FFF76DFF92
:10047000C5E90001002904D56869411C69612D2284
:100480000DE0288F810704D56869411C69612B2222
:1004900005E0C00721D56869411C696120223254FA
:1004A0001BE095F83A000022FFF74FFFC5E9000175
:1004B00095F83800010710D5D5E90023002B08BFB7
:1004C000002A0AD044F02000782806D1686930213B
:1004D0003154401C421C6A613454214668693044DE
:1004E000E86087E00868C01D20F007000860D0E9D8
:1004F000002308300860C5E90023D5E90001C80FD2
:1005000004D06869411C69612D220DE0288F8107A4
:1005100004D56869411C69612B2205E0C00704D538
:100520006869411C69612022325468693044E8607E
:100530002146284600F036FAACE005F13A02507840
:1005400020B14FF0FF340FF6043074E010786228C9
:1005500008D0682824D06A2812D06C282ED07128A0
:100560000ED02BE00A680A6052F8040B0A6020B92A
:100570004FF0FF340FF6EC205DE0E96A017089E08E
:100580000A680A6052F8040B0A6020B94FF0FF3481
:100590000FF6D0204FE0EA6AD317C0E9002379E0D4
:1005A0000A680A6052F8040B0A6020B94FF0FF3461
:1005B0000FF6B0203FE0E96A01806BE00A680A604C
:1005C00052F8040B0A6020B94FF0FF340FF6942064
:1005D00031E0E96A01605DE00A680A6052F8040BE4
:1005E0000A60002120F0000221F0FF33C5E900235A
:1005F000EE607821284600F02DF94BE06C2285F85A
:100600003A200B680B6053F8042B0B6052BB4FF081
:10061000FF340FF684200EE095F83A206C2AF0D0D3
:100620000868086050F8044B0860EC603CB94FF073
:10063000FF340FF6482000F0EBFD201A76BD2E6B3C
:10064000002E04D5204600F003FE044608E03246A2
:100650000021204600F026FE002814BF041B34466B
:10066000AC6117E0294600F092F8002812D54FF04F
:10067000FF3076BD6869411C69612522325409E06A
:100680006969481C686125227254210002D0431C0C
:100690006B613454002076BD2DE9F0410E460546CD
:1006A0009046726B7069316AB46A121AB069521A54
:1006B000716A121AF069521A121A96F83800141B4D
:1006C00041070DD4002C0BDD2746B0682021A84738
:1006D0000028B06057D0F06A401C7F1EF062F4D151
:1006E000736942463146284600F098FC00284AD1FA
:1006F000376A002F0ADDB0683021A8470028B060B3
:1007000041D0F06A401C7F1EF062F4D1B369F268F8
:100710003146284600F082FCA8BB776A002F09DD2D
:10072000B0683021A847B06068B3F06A401C7F1EF3
:10073000F062F5D1F068B169F36942183146284694
:1007400000F06CFCF8B9B76A002F09DDB068302101
:10075000A847B060B8B1F06A401C7F1EF062F5D1C6
:1007600096F8380041070BD5002C09DDB068202130
:10077000A847B06038B1F06A401C641EF062F5D141
:100780000020BDE8F0814FF0FF30BDE8F0812DE999
:10079000F8470D46A3B02F6B002F0646904648BF82
:1007A0006FF000470FF60C1400F0A8FDD4E9002309
:1007B000696B4018CDE90123812828BF4FF0FF3035
:1007C00042D20024002F33DDD8F8001001AA684679
:1007D00000F0EEFC8146B9F1000F38D4D8F80000E3
:1007E00010B9B9F1010932D44F4521DB6869484499
:1007F00081280AD30021696303AA29463046FFF7FE
:100800004BFF040014D40020686103ABD5F814A09A
:100810004A46694603EB0A0000F076FDCA44C5F873
:1008200014A058F8040B002818BFA7EB0907C9D17A
:100830004CB903AA29463046FFF72EFF044614B9E7
:10084000002068616863204624B0BDE8F0874FF05F
:10085000FF34F8E72DE9FC4307466F293E6908BFDE
:10086000082405D041F02000782814BF0A24102461
:100870003C25D7E90023642918BF69299046994689
:1008800005D1002B03D5D8F1000869EB4909B9F16E
:10089000000F08BFB8F1000F1FD1386BE8B9082C62
:1008A0004CD197F83800010748D530203B2586F811
:1008B0003B0043E000280ED597F8380000F0140004
:1008C000102808D17B6B7969386A5B1A1B1A9A1A4F
:1008D000002AC8BF3A62BDE8F3838DF80010404695
:1008E00049462246E31700F01BFD3032D0B26D1EA0
:1008F0003A28019504DB9DF80000A0F151018A1807
:100900007255404649462246E31700F009FD8046ED
:100910005FEA010908BFB8F1000F03D0F868711948
:100920008842DCD3082C09D197F83800010705D597
:10093000705D302802D06D1E30207055C5F13C022C
:10094000BA617119F960386B8242B3DA821A3A627D
:100950004FF6EF70398F01403987BDE8F3832DE9F9
:10096000D04306460F4614464FF00008DFF81094B7
:1009700012E0E00707D542464B463046394600F0C4
:1009800053FD06460F464046494642464B4600F058
:100990004BFD641080468946002CEAD1304639462A
:1009A000BDE8D0832DE9F84F05468A464AF0200479
:1009B0008EB0D5E90089612C02AE09D0286B0028E1
:1009C00048BF062003D408BF672C01D1012028634B
:1009D000D5E900014A005215521C0DD10B030BD072
:1009E000AAF1610103201A29A86102D20FF2CC6199
:1009F00010E00FF2CC610DE04A005215521C0ED1EE
:100A00000B030CD1AAF1610103201A29A86116D3A6
:100A10000FF2B461E868032200F076FCC0E1CDE992
:100A20000C01DDE90C2323F00043B3F5801F0DD248
:100A30000027002B08BF002A019703D111E00FF215
:100A40008461E7E701AA00F0C1FD0AE0CD48CE4984
:100A500000EB1350DDE90C2301900B40CB4910460D
:100A60001943C5E90001612C0DD1E86830210170FE
:100A7000821CBAF1610FEA600CBF782158214170E5
:100A80006869801C6861D5E90001CDE90C01DDE9E8
:100A90000C2333F0004104BF0028002300F04881FC
:100AA000612C40F0A080286B494600284CBF4FF0D5
:100AB000210B00F1010B404600220023DDE90C89E7
:100AC00000F0BCFD01990BF1010738BF89F0004926
:100AD000091F002F01918DF808200DF1090040F346
:100AE0003581A94900910646404649460022002327
:100AF00000F0BCFD80F029814800400D00F11C028F
:100B000011D0002A0FDD40F2FF739A4205DBA049A5
:100B100009F000400143002011E0009B194041EA28
:100B2000025140460BE028F0000039F0004108BFB8
:100B300000280FBF49461C22494600F0AFFD804601
:100B4000894600F049FEFF1F002F044609DD00F032
:100B500061FE02460B464046494600F06DFE804667
:100B60008946F01D072104E004F00F0200F8012D72
:100B70002411002C01DD491EF6D5491E5CBF002260
:100B800000F8012DF9D5DCE00020194602AA0A443C
:100B900000E05B1E12F80149491E8442F9D00F287B
:100BA00004D10DF10900425C521C4254002904D5C5
:100BB0000198001D02AE5B1C0190581E0CD4311828
:100BC000AAF13A040A783032D7B23A2FA8BFA21855
:100BD000401E01F80129F5D5286B002840F1A780B7
:100BE000591E2963A3E001996A4A47F2975041438D
:100BF00091FBF2F2019229F00046D2F1070204DDE6
:100C000040463146FFF7ABFE0AE0524200206249FF
:100C1000FFF7A5FE02460B464046314600F07EFE39
:100C20008046662C286B06BF019F0A3706273F18AF
:100C3000142FC8BF142730208DF8080089460DF105
:100C4000090000E03046002F34DD064640464946A4
:100C500000F088FF01460A4606F1080304200A2630
:100C6000B2FBF6F606EB860EA2EB4E02303203F82C
:100C7000012C0A22B6FBF2F202EB820EA6EB4E0624
:100C80003036401E03F8026DE9D1083F002F03F112
:100C90000806D7DD084600F079FF02460B464046BD
:100CA000494600F0C9FD00223C4B00F0BDFB8046E8
:100CB0008946CBE70DF10901401A0DF1090604E060
:100CC0000199491E401E0191761C31783029F7D0D8
:100CD000662C02D10199491C03E0652C0CBF01214F
:100CE00000212B6BCB189842B8BF431E002B1ED49B
:100CF000834204DAF05C3528A8BF392000DA3020BE
:100D00001946721E02EB010800E05B1E18F80199FB
:100D1000491E8145F9D0392802D1705C401C7054BD
:100D2000002904D50198401C16465B1C01900198CF
:100D300000B200901BB232465146284600F034F80B
:100D40002EE0C61D002F3FF7CFAE30460DF1090152
:100D5000401A03465845C8BF5B46002B0DF10906F3
:100D60003FF53AAF8342BFF60FAF0DF10900C15C0A
:100D700007297FF709AF0F2007E70000CBCCCC0C89
:100D80000000244002FCFFFFFFFF0F800000E03F57
:100D90000000F07FA08601000000F03F84D797415B
:100DA0000FB0BDE8F08F00002DE9F84783B006468C
:100DB0008A461746984600F0FDF9B8F1000F406AE0
:100DC000356B90F8009002DC4FF00108BFA74AF0A5
:100DD0002000BDF93040662808BF641C15D0672884
:100DE00040F0848014F1040FC0F28680AC4280F29F
:100DF000838096F83800641C010702D4A845B8BF68
:100E0000454620B22D1A48BF00250FFA84FAF06833
:100E1000B169BAF1000F25DC4A1C30234354002D80
:100E200003DC96F83800010703D5F06800F802905B
:100E3000521C15EB0A0FB8BF6C4220B24419414254
:100E40004445B8BFA046B26171620FFA88F5F561FA
:100E5000F068B3692A463946184400F055FA641B15
:100E6000B462C4E022B29045084417DA42463946DB
:100E700000F04AFAB0694044B061AAEB0801002DC5
:100E8000716203DC96F838100A0705D5F16801F89D
:100E90000090F069401CF061B562A8E0394600F0AE
:100EA00033FAB069002D5044A8EB040803DC96F82F
:100EB00038100A0703D5F16801F80090401CB061B2
:100EC0000FFA88F08542F368B069B8BFA8460FFAF8
:100ED00088F207EB0A01184400F016FAB1690FFA1C
:100EE00088F00144B161281A706280E0BAF1610FA4
:100EF00014D14FF0700A16E0A84504DA96F83810BD
:100F00000A0758BF45466D1E48BF0025BAF1670F56
:100F100014BF4FF0450A4FF0650A04E0BAF1410FE3
:100F200008BF4FF0500AB169F368481CB061002D4A
:100F300017F8012B5A5403DC96F838100A071BD512
:100F4000F168431CB36101F80090002D14DDA8F195
:100F500001080FFA88F039468542F768B8BFA846FD
:100F60000FFA88F2F81800F0CFF9B0690FFA88F19B
:100F700008446D1AB0617562F068B1690844002CCC
:100F800080F800A003D42B224270811C03E02D21A5
:100F900041706442811C00206A460AE023460A240C
:100FA00093FBF4F404EB8405A3EB450302F8013B47
:100FB000401C24B2002CF1DC012806DC4AF020029F
:100FC000652A04BF302201F8012B48B9302001F80E
:100FD000010B07E0401E1DF80030303301F8013BE3
:100FE0000028F7DCF268B0691044091AF16196F83C
:100FF000380000F0140010280DD17269B169706AD0
:101000008A18F1698218B06A8A188218706B824255
:10101000BCBF821A326204B0BDE8F087F8B505465D
:101020000E4617461C46002074B117F8011BB06825
:10103000A847B06030B1F06A401CF0620020641E26
:10104000F3D1F2BD4FF0FF30F2BD00007072696E57
:1010500074665F733A20256E20646973616C6C6FEF
:10106000776564007072696E74663A20626164200C
:10107000256E20617267756D656E74007072696EA1
:1010800074665F733A206261642025732061726721
:10109000756D656E740000007072696E74665F73C2
:1010A0003A2062616420256C7320617267756D65FA
:1010B0006E74000000000000000000006E616E0011
:1010C0004E414E00696E6600494E46003000F0B455
:1010D0000246106895681318506803EB5004C00767
:1010E0001DD54D441BE013F8017B05F8017B491E1B
:1010F000F9D1A0B1B60813F8011B06F00306032EC0
:1011000008BF13F8016B01EB06214942801C2944FA
:1011100005D011F8016B05F8016B401EF9D1A3420F
:101120000ED013F8016B16F0030104BF13F8011B76
:10113000C91C30090F28DAD113F8010B0F30D6E79C
:10114000F0BC02F10C0070471B48704770B4536844
:10115000D418042B09DA41B1057804F8015B10F8C2
:10116000016B16B15B1C491EF3E7536070BC7047FE
:1011700038B514461D4661B1FFF7E8FF61686A6B38
:10118000204690476FF00102811A02D0491E01D01B
:1011900001E003E005E00021616032BD6FF0010075
:1011A00032BD4FF0FF3032BDDA6B1047024BDFE744
:1011B000014BF9E701487047540000201C00002053
:1011C000C9B202788A421AB11CBF10F8012FF9E7A0
:1011D00018BF0020704730B4002513E050F8042BEE
:1011E000D30744BFA9F101039A18091F042942F843
:1011F000045BFAD213468C0744BF15809B1CC907B9
:1012000048BF1D7050F8041B0029E7D130BC70475F
:1012100080B500B906A005490B681BB12222002148
:10122000984701E000F0BFFC222002BD904600205C
:10123000636F6E73747261696E742068616E646C42
:1012400065723A20626164206D6573736167650041
:1012500000F10103810704D010F8011B820781B15E
:10126000FAD10268A2F10131914311F0803104BF3B
:1012700050F8042FF6E709BAB1FA81F100EBD1007A
:10128000401CC01A7047B1F5807F02D34FF0FF3089
:1012900070470170012070470078401E8041C043B4
:1012A000C00F7047C9B2830706D0521E22D310F870
:1012B000013B9942F7D11FE0083A13D302F104022F
:1012C00041EA012141EA014150F8043B121F21BFCC
:1012D0004B40A3F1013C2CEA030C1CF0803FF3D0FF
:1012E000C9B2001F083210F8013B521E28BF91EA14
:1012F000030FF8D818BF0120401E704780B5FFF7D4
:1013000023FF006C02BD00004AB1000011F8013B50
:10131000521E00F8013B1CBF11F8013BF8E7704773
:10132000D3BBD9B1B2F5803F5BD2022A1ED98C461D
:10133000B1FBF2F102FB11C31B0443EA1043B3FB00
:10134000F2FC02FB1C3380B240EA0343B3FBF2F031
:1013500002FB103240EA0C4000237047022A05D9F4
:101360008446B0FBF2F002FB10C270474AB105D1CF
:1013700000F0010249085FEA3000704700220023B4
:10138000704700F013BC0B000200002100207047E2
:10139000F7D3002200237047904271EB030CF2D385
:1013A00070B5B1FA81F4B3FA83F52C1BA340C4F1F4
:1013B000200532FA05F63343A2405FF00046E640CE
:1013C00002E05B085FEA3202841A71EB030524BF76
:1013D000204629467641F4D302000B00300000215C
:1013E00070BD70B5B1FA81F4B2FA82F5C4F120048F
:1013F0006419B4F12006DAD3B2405FF00044F4403F
:10140000002502E052085FEA3303C61A71EB020EB0
:1014100024BF3046714664416D41F3D302000B0096
:101420002000290070BD0000B0B581EA030C0CF06B
:10143000004C40F2FF7515EA11541DBF15EA135711
:10144000AC42AF4239E0E41923EA455343F4801338
:10145000C90241F0004141EA505EC7021100A7FBFA
:10146000020200284FF00000EEFB01204FF00001C7
:10147000E3FB072118BF42F0010240180021494157
:10148000E3FB0E01A4F580640F0302D25200404139
:10149000494154F101046CDD470872F1004250F1FA
:1014A000000051EB0451A1F580115CBF41EA0C0131
:1014B000B0BD4CEA05510020B0BD05EA1357AC425F
:1014C00014BFAF4241E050EA410E1CBF52EA430E46
:1014D00002E061460020B0BD24423C441BD15FEADB
:1014E000070EF6D0090302BF01460020AEF1140E2C
:1014F000B1FA81F7AEEB070401FA07FE0C37C7F12A
:10150000200100FA07F7C8404EEA000E23EA4553CF
:1015100043F48013A2E733F00043B3FA83F704BF28
:10152000B2FA82FE77440B3FE41BB7F1200E2FBFC7
:1015300002FA0EF3BB40C7F1200E22FA0EFE38BFAE
:1015400043EA0E03BA40641C82E750EA410E14BF1E
:1015500052EA430E6FF000014FF4001717EB430FF0
:101560008ABF194617EB410FB5E74CEA0551002039
:10157000B0BDD4F10104B4F120070FDAC4F12007A3
:10158000520828BF42F0010210FA07F501FA07F7E6
:10159000E1BF2A43E0403843E1400FE0352C98DCBE
:1015A000C7F1200452EA400220FA07F218BF42F0C5
:1015B000010231FA07F0A1400A43002172F1004212
:1015C00050F1000051EB0C01B0BD000010B5144605
:1015D00000F002F8226010BDC1F30A5343B14A0083
:1015E00012F5001F28D2A3F2FE32A1EB0251704780
:1015F00050EA410C20D001F0004C31EA0C01B1FA64
:1016000081F204BFB0FA80F3D2180B3AB2F1200392
:101610002CBF00FA03F1914041EA0C013EBFC2F138
:10162000200C20FA0CF319439040524240F2FD3353
:10163000D21A01EB03517047002270474FF4001C8F
:101640001CEB410F94BF1CEB430F09E041EA030C74
:1016500050EA4C0C52EA0C0C03D2994208BF90425B
:10166000704714BF8B428242704700004FF4001C49
:101670001CEB410F94BF1CEB430F09E041EA030C44
:1016800050EA4C0C52EA0C0C03D28B4208BF824247
:10169000704714BF9942904270470000124254D4E0
:1016A00040F2FF7C1CEA11530FD0634531D09B18E8
:1016B00063453CBF01EB0251704701F0004141EA34
:1016C0000C510020AFF30080704750EA410320D056
:1016D00001F0004C91EA0C011CD0B1FA81F30B3BF4
:1016E0009A420DD9D21A994051EA0C01C3F1200C4B
:1016F00020FA0CFC61449840531C40F2FF7CD7E771
:10170000914041EA0C01C2F1200C20FA0CF319437C
:1017100090407047B0FA80F31533202BE0D3202A95
:10172000EED3203A203B9A4209D9D21A00FA03F1AB
:1017300041EA0C010020531C40F2FF7CB8E700FA9C
:1017400002F141EA0C0100207047524240F2FF7C56
:101750001CEA11530DD06345DBD0B2EB030C3CBF48
:10176000A1EB025170470CF1010221EA035141F44F
:10177000801150EA410CCCD001F0004C352A27DC16
:1017800030B481EA0C01B2F1200309DAC2F120037E
:10179000044601FA03F5D0402843D1409C400CE0B8
:1017A000C3F12002450020FA03F418BF44F00104FD
:1017B00021FA03F091400C43002174F1004550F1EF
:1017C000000051EB0C01244230BC7FF47BAF70472A
:1017D0006146002076E70000C1F30A5340F2FE3272
:1017E0009B1A14DDD3F120034FEAE17208DDC90230
:1017F00041EA505141F00040D840801850407047B5
:1018000003F2E13010B1D24382F000407047002073
:1018100070470000C11768B14840401AB0FA80F222
:101820009040D21CC907C2F5846241EA025202EB21
:10183000D02140057047000070B44FF0004591EA98
:10184000030F40F1B5816B40841A71EB030603D29C
:10185000001BB141121973414FF4001C1CEB410FE6
:1018600034BF7CEB430442E00C0DA4EB1356352E41
:101870004FDC45EAC323DB0A45EAC121C912B6F1B0
:1018800020050DDD63FA05F6EB4086EA03051242FA
:1018900018BF45F00105C01851F100010CD213E04A
:1018A00062FA06F5F2405540F3415A40B340F34026
:1018B0005A408018594107D349085FEA30005FEA6F
:1018C000350528BF45F0010501F58011420875F185
:1018D000004250F1000041EB04514E0016F5001F8C
:1018E00070BC38BF70470020090D090570471CEB1C
:1018F000410F10D252EA43060BD0BCEB410F05D882
:101900000C0DAB43661E342EB6DD02E0AB438018EF
:10191000594170BC704770BC70470000F0B540F290
:10192000FF7581EA030C0CF0004C15EA11541DBF41
:1019300015EA1357AC42AF42E5E0BC41C1F31301D5
:10194000C3F31303801A994143F4801304D2641E35
:101950004000494180185941C90241EA5051B1FB48
:10196000F3F603FB1611A2FB0675D7EBC020A941C5
:1019700002D2761E80185941C90241EA5051B1FB8A
:10198000F3FE03FB1E11A2FB0E75D7EBC020A9418D
:1019900003D2AEF1010E80185941890241EA9051FB
:1019A000760546EA8E2EB1FBF3F603FB1611A2FB79
:1019B0000675D7EB8020A94102D2761E80185941C6
:1019C000C90241EA50514EEA060EB1FBF3F603FBA1
:1019D0001611A2FB0675D7EBC020A94102D2761ED4
:1019E00080185941C90241EA5051B1FBF3F703FB9A
:1019F0001711A2FB0735D3EBC020A94167F10007FF
:101A00000CBF004247F0010766F3D5274FEA1E31AD
:101A1000B80814F5806412DDBD0775F1004250EB83
:101A20000E5051EB045111F5801F5CBF41EA0C01CF
:101A3000F0BD4CF07F6141F0E0410020F0BDBD07FA
:101A40006D0840EA0E5041F48011D4F10104B4F164
:101A500020060ADAC4F120060200E04001FA06F38B
:101A6000E1401843B24015430EE0342C13DCC6F1BC
:101A7000200445EA40056D0820FA06F2154321FAD4
:101A800006F0A1400D43002175F1004250F1000025
:101A900051EB0C01F0BD00205FEA0C01F0BDCFB9A5
:101AA00092185B41B3FA83F704BFB2FA82F6BF190A
:101AB0000B3FB7F120062FBF02FA06F3BB40C7F178
:101AC000200622FA06F638BF3343BA401CB1E419A7
:101AD000641E33E77F4231F00041B1FA81F404BF64
:101AE000B0FA80F6A4190B3CB4F120062FBF00FA1F
:101AF00006F1A140C4F1200620FA06F638BF3143B2
:101B0000A0403C1B1AE7AC421ABF05EA1357AF428C
:101B100012E050EA41061CBF52EA4306BFE750EA12
:101B20004107304661461CBF41EA0551F0BD52EA0B
:101B3000430C08BFC143F0BD00204FF4001616EB64
:101B4000410F98BF16EB430F08BF16EB410F24BFA0
:101B5000C14305E016EB430F0CBF61464CEA05514B
:101B6000F0BD0000400D491840EA81200CD2490D1B
:101B7000A1F58061491C40F0004005DBD1F11F0157
:101B800054BFC840C017704700207047014648B195
:101B9000B0FA80F18840C91CC1F58461090501EBE8
:101BA000D02140057047012000F0B8B87047000010
:101BB000841A71EB030604D26E40001BB141121966
:101BC00073414FF4001C1CEB410F34BF7CEB430608
:101BD00083E00C0DA4EB1356362E00F37C80012E0F
:101BE00045EAC32341DC43EA525312BFD2029202B8
:101BF0005B08240545EAC12141EA5051D2EBC020DF
:101C0000994125D407D1B0FA80F610FA06F162D0D6
:101C10000020203608E0B1FA81F6B140C6F120027A
:101C200020FA02F21143B0404FEAF474B4EB465488
:101C300034F001064FEA74040AD8D6F50016760D82
:101C400004F00044F04061FA06F25040F140484090
:101C5000C00A40EA415021F0004128BF5FEA500528
:101C600050F1000044EBD12135E0DB0A45EAC12107
:101C7000C90AB6F120050EDD42EA0242120CC5F196
:101C8000200603FA06F6EB4042EA06056D4298414B
:101C900061F100010DE062FA06F5F240554063FA89
:101CA00006FC82EA0C02F3405A406D42904161EB1F
:101CB000030111F4801F05D1641E620502D06D007E
:101CC0004041494121F48011430875F1004350F12E
:101CD000000041EB045170BC70471CEB410F15D262
:101CE00023F0004352EA43060BD04FEA4C0CBCEB06
:101CF000410F04D80C0D661E342EB7DDEBE7801AB9
:101D0000994150EA410608BF0021E4E708BF1CEBF7
:101D1000430F28BF6FF00001DDE7000080B5AFF38F
:101D20000080024A11001820ABBEFBE7260002002B
:101D300080B500F099FD4FF4FA72DFF8101ADFF861
:101D4000100A00F017FF18B10FF6402001F008F953
:101D500000F0CBFD00F0AEFD00F0DBFD00F0E3FD98
:101D600000F0A2FD00F0FDFDDFF8E8090168090AB6
:101D7000090241F0AA01016021F47F4141F4AA4126
:101D800001604FF0FF31C0F81F10C0F82310D0F8E9
:101D9000161021F07F4141F01851C0F81610D0F80C
:101DA0000E1021F07F4141F0C841C0F80E10002113
:101DB000DFF8A409C163C17640F6B830BDE802403F
:101DC00001F004B92DE9F84300F04EFDDFF8844935
:101DD000DFF88459D4F8170005F1450620F070406B
:101DE000B17840EA0170C4F8170040F26457D4F8A3
:101DF00017003178090620F0706001F07061084327
:101E0000C4F8170000F0EBFB09DC307800281CBF99
:101E1000E87E002803D0287F08B1687FF0B100F089
:101E200055FD01F051F900F0A1FD00F040FD287FC3
:101E3000002804BF3178012903D100F032FD00F001
:101E40006EFD00F0CCFB05DC307800281CBFE87E7E
:101E5000002803D10021E9762977E96340F2145183
:101E6000D4F80200000C884207DAE87E28B9012184
:101E7000E976E863002129774DE000F0B0FB12DA43
:101E8000E87E00281CBF287F00280CD0687F50B156
:101E9000E86B48F2E901884205D300226A77DFF84F
:101EA000BC08E86337E000F09AFB14DAE87E00280B
:101EB0001CBF287F00280ED0687F60B9E86B40F611
:101EC000B931884207D3E86BDFF89418884202D210
:101ED00001226A771FE000F082FB1CDAE87ED0B1B5
:101EE000E86BDFF88018884215D300F0E3FC00F0BF
:101EF000DBFC00F018FD00F0F8FC00F03BFD00F00A
:101F000035FBC4F80A000021012028772974E96311
:101F1000012101F0E9F8296C05F14808D8F8000022
:101F2000091AC92907D3287F08B1687F18B1DFF8DB
:101F3000380801F0D4F9296CD8F80000091A40F2E9
:101F4000F512914212D3287F08B1687F70B1012148
:101F5000A97500206876696A491C6962E87F38B90A
:101F60000121E977E86A401CE86201E00020E87797
:101F7000287D40B1012129743078002819BF3178BB
:101F8000022900202875687D002804BFA87D00284C
:101F90000DD0286CC8F80400002129746975A97552
:101FA00000F0E0FA022801DD00F0FBFA3078317829
:101FB000DFF8B89719B102292ED005D32EE0D4F856
:101FC0000A0000F004FB27E0D9F8030000F0FFFA54
:101FD0000A2200F0BDFA2169D9F8090021F07F41F9
:101FE000000C41EA00612161D9F808006169000430
:101FF00089B200F47F0008436061D9F80800D4F882
:102000000F1000F0FF0021F07F4190FBF2F041EA59
:102010000061C4F80F1001E000F09AFA287CDFF8A4
:102020005077002800F01482287F002840F01082AA
:10203000317821B1022900F0A0804DD36CE200F08C
:1020400066FC00F03DFC00F08DFAD4F80A0014D1D3
:1020500020F07F4040F04070C4F80A0000F067FABA
:1020600040F09640C4F80F00E06880B240F4C80029
:1020700000F062FA40F000701AE0000E0328DDD193
:10208000E2686168120C0A20090C4243914222DB8B
:1020900000F071FA00F04BFA40F0A040C4F80F00D5
:1020A000E06880B240F0C87000F046FA40F040604E
:1020B000C4F80D00D4F81210E068C1EA0000C4F8BA
:1020C00012002169D4F80D0000F07AFA6169E06825
:1020D000C1EA000060611FE200F0F5FB00F03FFC88
:1020E000D9F84200E168000C0A2290FBF2F0C1EA44
:1020F0000041E160D9F84200D4F81210000C90FBC6
:10210000F2F0C1EA0041C4F81210D9F84400D4F842
:102110000D10000C0A28CEBF0A20D9F84400000C8C
:1021200021F07F4141EA0061C4F80D10D9F8340074
:10213000D4F8151021F00041000E41EAC071C4F836
:102140001510D9F84400396BC1EA00003863396BC7
:102150006068090C090441EA10413963D4F80A00A7
:10216000000E022808BF00F0D2FB00F0FBF90328A4
:10217000B1DDBDE8F14300F0A3BB00F0C8FB00F007
:102180009FFBDFF8F0653069E168DFF8EC75000A65
:10219000C1EA0040E060D4F80D00616920F07F40A2
:1021A00040F08850C4F80D00D6F80200C1EA0000E3
:1021B00060613069D4F81210000AC1EA0040C4F826
:1021C00012002169306900F0FBF9D4F80F10D6F83D
:1021D000130000F0EFF9C4F80F00D4F80E10D6F891
:1021E000030000F0E7F9C4F80E00D4F81510D6F893
:1021F000120021F00041000E41EAC071C4F8151030
:1022000000F0A6F9DFF87415DFF8740502680A40DB
:1022100042F4D232026022F07F4242F03062026029
:10222000D0F80220C0F29B12C0F802208268120A85
:10223000120242F001028260836862681940120C47
:102240000A2392FBF3F207EA0227394381604FF435
:102250007A7321688268DFF82C75090C22F07F42BE
:1022600091FBF3F142EA01628260A169D0F80A2091
:1022700022F0807201F08071114300F04FF921F0DB
:10228000007100F04BF941F08061C0F80A1021F0B4
:10229000006100F043F921F0805100F03FF921F096
:1022A0000051C0F80A10D0F80B1041F07F41C0F87F
:1022B0000B10C16841F07F41C16000F053F908285C
:1022C0000CD8DFE810F009000C0027003E00520097
:1022D000B600B600B600B60000F063F91CE1D6F80F
:1022E000120020F08070C6F8120000F023FB00F00E
:1022F00028FB00F02BFB00F039FB00F014F900285C
:1023000007D000F033F940F00070C4F80A00002054
:10231000386001E100F00BFB00F005F900281EBF5A
:10232000D6F81200C0F300600028F2D000F01EF9C9
:1023300040F04070C4F80A0000F004F940F08060FA
:1023400011E000F0FAFA00F0EEF800281EBFD6F80F
:102350001200C0F30060002806D000F00CF900F075
:10236000F1F840F0A060A061D6E0D6F81200C0F30A
:102370000060002802BFD6F81100C0F300600028FA
:1023800022D1D6F81100C0F34060002802BFD6F871
:102390001100C0F38060002816D1D6F81100C0F3F8
:1023A000C060002802BFD6F81100C0F300700028FA
:1023B0000AD100F0DBF840F0A060C4F80A00D4F8BD
:1023C000090020F07F4028E0D6F81100C0F300603B
:1023D000002802BFD6F81100C0F34060002810D1D9
:1023E000D6F81100C0F38060002802BFD6F81100B3
:1023F000C0F3C060002804D1D6F81100C0F300700B
:1024000020B100F0C1F840F0807006E000F03EFA24
:1024100040B900F0B9F840F00070C4F80900286C29
:10242000C8F80800E068000C76D1286CC8F80800ED
:1024300072E000F07FFA00F084FA00F08EFA00F00B
:1024400099FAE06880B200F077F8C4F80D0063E014
:10245000287F002860D1287E10B100212976697676
:10246000E87D002804BF687E002809D00021E975B6
:1024700001206876E86300F026FA00F070FA07E0C1
:1024800000F022FA6068000C6428B8BF00F069FA16
:1024900000F04DF8C4F80F00D4F8120080B2C4F870
:1024A0001200206920F07F402061606980B2606185
:1024B000D4F8150020F00040C4F8150000F029FA07
:1024C000307818B102280FD003D325E000F069F866
:1024D00003E0386820F480303860E87EC0B1E87EE0
:1024E000D0B1E86BA0B917E000F05BF800F022FA79
:1024F00000F027FA00F031FAA06920F07F40A061D7
:10250000E87E28B1E87E00281CBFE86B002803D0D5
:10251000BDE8F14300F0D1B9BDE8F183C0F80A107D
:10252000D0F80A1070474FF4FA713846FBE0D4F83F
:102530000F0020F07F407047E060D4F80D0020F0DD
:102540007F40704700203860A06920F07F407047CE
:10255000D4F81500697E20F0006040EAC160C4F83C
:1025600015007047D4F80A00000E7047D4F80A002E
:1025700020F07F407047D4F80A0020F07F4040F000
:102580008060C4F80A007047D4F80A0020F07F4049
:1025900040F0C060C4F80A00D4F8090020F07F4081
:1025A0007047D4F80A0020F07F4040F08070C4F8F3
:1025B0000A00704721F07F4100F07F4008437047D8
:1025C00021F07F4100F07F40084320617047A169FE
:1025D00021F07F4100F07F400843A0617047D4F8AC
:1025E0000200000CB842704710B500226421574B1E
:1025F00084B233F814401219401D491EF8D16420EA
:10260000B2FBF0F080B210BD70B50320FFF7ECFF15
:10261000504C226842F2BF7148434FF47A7300F085
:102620007CF82260002041F24D75FFF7DDFF684322
:1026300040F6FF72B0FBF2F0616880B21930C1EA77
:10264000004161600120FFF7CFFF454340F6FF7076
:10265000D4F80610B5FBF0F080B2C1EA0041C4F82E
:1026600006100220FFF7C0FF40F6AF21484340F6B6
:10267000FF73B0FBF3F0D4F80220374D80B2643022
:10268000C2EA0042C4F802200420FFF7ADFF40F682
:10269000A661484340F6FF73A26800F03EF805F1DA
:1026A0002806A260B08D2168B0EB114FBCBF080CAA
:1026B000B085F08D6168344CB0EB114FBCBF080C95
:1026C000F085B0692168884207D1287F08B1687F0A
:1026D00018B195F82100401C00E0002085F8210089
:1026E00095F82100642813DD287F08B1687F78B150
:1026F0000121A9773068401C30601B4800F0EFFDD5
:1027000001F064F801F0B6F8002085F8210001E03E
:102710000021A977B069206070BDB0FBF3F080B2F2
:10272000C2EA0042704710B5034600201A680A4CFE
:1027300012B9216C196010BD0A2391FBF3F3216CCF
:102740008A1A934238BF012010BD0000FC3C0020D3
:10275000E8430020A04500201042002071820300C1
:1027600070820300410D0300F84400203044002033
:10277000804200205846002000FFFF00FF0000FFBD
:1027800070460020884600208C46002048414C5F5F
:102790004144435F53746172745F444D41204572FC
:1027A000726F720D0A00000010B5774C204600F0E1
:1027B000D7FB04F1400000F0D3FB204600F0D0FB33
:1027C00004F1800000F0CCFB04F1C00000F0C8FB75
:1027D00004F5807000F0C4FB04F5A07000F0C0FBAD
:1027E00004F5C07000F0BCFB04F5E07000F0B8FB2D
:1027F00004F5007000F0B4FB204600F0B1FB04F1DA
:10280000400000F0ADFB00BF0FF2A41163A000F088
:10281000A7FB00BF0FF2CC120FF2BC1168A000F0B2
:102820009FFB04F14000BDE8104000F099BB38B5B3
:10283000564C0221204601F0E6F9451E2046AD41E6
:10284000012101F0E0F9ED0F401E8041C00F45EA83
:1028500040054FF400714E4801F0D5F9401E80410B
:10286000C00F45EA800032BD10B54A4CFFF7DFFFCC
:1028700020702078012802D0022802D003E0012134
:1028800002E0607010BD0021617010BD80B54FF492
:1028900080613E4801F0B7F908B1002002BD8020F8
:1028A00002BD0122802155E00022802152E0012258
:1028B000012131E0002201212EE0012202212BE042
:1028C0000022022128E042E0002241E080B501F030
:1028D000BBF92C4801F0DAF9012200F013F8BDE849
:1028E000084001224FF480713DE080B5002200F0E5
:1028F00009F800224FF48071274801F08AF9BDE8F9
:1029000002403BE04FF48041204801F082B90122AF
:1029100000E000224FF480511D4801F07AB90122F5
:102920004FF4A06116E000224FF4A06112E00122F2
:1029300080210FE0002280210CE001224FF4807101
:1029400008E000224FF4807104E0000000BF012283
:102950004FF400710D4801F05CB90022F8E7012244
:1029600000E0002208210C4801F053B900224FF486
:102970000061EFE701224FF40061EBE7014801F04D
:10298000E2B90000F8440020E472000800100240A0
:102990000004024054420020000002404170706C6C
:1029A00069636174696F6E203A2025730D0A000017
:1029B0004845564F2045562043686172676572004E
:1029C0004275696C64204461746520203A20257347
:1029D0002025730D0A0000004A756E202036203233
:1029E0003031390030383A34323A3438000000009F
:1029F00070B5044600250CB9012070BD04F13C06F9
:102A0000706820B9204601F030FAB5603570706802
:102A1000C10610D4706820F4885040F00200706045
:102A2000204600F0CCF9B560716821F0020141F058
:102A30000101716000E0012500203070284670BD62
:102A400038B500F070F801D1022032BD00F073F803
:102A500038D500F049F846BF906820F00600002005
:102A600000F03CF818600868426842F0806242F06A
:102A700020024260DFF8402400F049F818D1884273
:102A80000FD0DFF83814884204D1126812F01F0FFB
:102A900018D106E0DFF82814884213D100F019F8A5
:102AA00010D2816811F0405F0CD100F00DF809E000
:102AB000884202BFDFF80C04016811F0405F01D1C9
:102AC00000F02CF8002032BD816841F08041816027
:102AD0007047126802F01F02102A704790600024AD
:102AE00014706FF0220070475568DFF8DC03054072
:102AF00045F4807555605868440505D5506820F444
:102B0000005040F4805050605068C404704708681A
:102B10001368DFF8B81313F01F0F7047016841F016
:102B20008041016070470146002001F13C020090A5
:102B30001378012B70470120107008688368DC0748
:102B400014D48368DFF8884343F001038360DFF81F
:102B500084030368B3FBF4F404EB4404009402E040
:102B60000098401E009000980028F9D10B689868E2
:102B7000C4077047F8B50446002004F13C030090F8
:102B80001D78012D01D10220F2BD012018702068AE
:102B90008568EE070FD48568DFF8346345F00105DA
:102BA0008560DFF830030568B5FBF6F606EB4606F0
:102BB000009600F0FCF82568A868C60762D55F6833
:102BC000DFF80403074047F480775F6068684505D5
:102BD00005D5586820F4005040F48050586058687B
:102BE000C50446BF986820F00600002098600025C4
:102BF0001D70A36B0FF2E520D863A36B0FF2453075
:102C00001864A36B0FF24530D8646FF0220025687A
:102C100028602068436843F080634360134620685F
:102C2000856845F4807585600A46206800F14C018E
:102C3000A06B01F006FA20689F4AA449136813F0BC
:102C40001F0F16D188420DD09C49884204D11268CA
:102C500012F01F0F16D105E09949884212D1FFF7F3
:102C600038FF0FD2816811F0405F0BD1FFF72CFFC6
:102C700008E0884202BF9348016811F0405F01D12B
:102C8000FFF74CFF0020F2BD78B50246002000900F
:102C900092F83C30012B01D1022072BD012082F854
:102CA0003C0007240B6810680A2B12D30A3BC56846
:102CB00003EB43039C4025EA0404C460C3680D6829
:102CC0008C68A5F10A0606EB4606B4402343C360B0
:102CD0000FE0056903EB430304FA03F325EA03035A
:102CE000036103690D688C6805EB4505AC4023431F
:102CF00003611F244B68072B0CD25B1E456B00F051
:102D000050F84463436B4D680C886E1E00F044F825
:102D100043631BE00D2B0CD2DB1F056B00F041F869
:102D20000463036B4D680C88EE1F00F035F80363F5
:102D30000CE00D3BC56A00F034F8C462C36A4D680C
:102D40000C88A5F10D0600F027F8C3625F4B98428E
:102D50001DD10C685848122C03D1036843F480033A
:102D600003600B68102B18BF112B10D1036843F4BC
:102D7000000303600868102809D15649544C0B68B9
:102D8000B3FBF4F40A204443009400F010F800214F
:102D900082F83C10002072BD06EB8606B440234347
:102DA000704703EB83039C4025EA0404704702E06C
:102DB0000098401E009000980028F9D170473E4AC4
:102DC000116821F440311160136841680B431360AE
:102DD0000268536823F4807353605168036941EAC1
:102DE00003215160516821F040715160536881683E
:102DF0000B435360936823F4006393609368C16846
:102E00000B4393603449836A8B4210D0936823F05C
:102E1000706393609368816A0B439360936823F0B7
:102E2000405393609368C16A0B43936007E09168D5
:102E300021F070619160916821F04051916091683A
:102E400021F0020191609168037E41EA43019160A3
:102E500090F82010002951680CD041F400615160B5
:102E6000516821F4604151605168436A5B1E41EA38
:102E7000433101E021F400615160D16A21F4700115
:102E8000D162D16AC3695B1E41EA0351D162916884
:102E900021F400719160916890F8303041EA43214B
:102EA0009160916821F4806191609168406941EA84
:102EB00080219160704700000423014000210140FF
:102EC0000022014008200140FEF9FFFF00200140E0
:102ED00040420F00180000200100000F816B0A6CB7
:102EE00012F0500F24D1086C40F4007008640A6896
:102EF000906810F0405F04BF087E002815D1D06AAA
:102F000010F4700F02D0906843050ED4506820F082
:102F100020005060086C20F480700864086CC204C3
:102F200003D4086C40F0010008640846FFF76CBB4E
:102F30000A6CD30644BF084601F0CCB9896BCA6C51
:102F400010470000806B01F0C6B90000806B402183
:102F50000164426C42F00402426401F0BBB900001B
:102F60000EB4C0B5024603A800210190009101AB48
:102F70000121044878440C30FDF706F906BC5DF8E1
:102F800010FB00BFDB4B000001460020842918BF66
:102F9000C81C704780B501F074FA002002BD3EB530
:102FA00004460D46B4F90800FFF7EEFF02A90191AF
:102FB00000902B4622692168606892B201F08CF97A
:102FC000012801D000203EBD02983EBD80B500B969
:102FD000012001F038FA002002BD000080B501F0A8
:102FE000FDFB00F017F801F013FC01F0BBFC00F052
:102FF0002BFE00F0DDFE01F0CFFC00F02DFE00F016
:10300000E5FB01F01DFD01F06DFD01F0DDFDFFF7B9
:10301000C1FFFEE780B596B00AA8302101F086FE18
:1030200005A8142101F082FE01A8102101F07EFE06
:10303000002000902848016841F080510160002183
:10304000006800F080500090009824480091092109
:10305000026842F4804202604FF48032006800F45B
:103060008040009000980A910B9201210F9102225A
:103070004FF480011092119108224FF4A87112921E
:10308000139102220421149215910AA801F052FE14
:1030900002210691002207920F204FF4A0510590C3
:1030A00008914FF480520992052105A801F0BEFF56
:1030B00002214FF400720191049201A802F0AAF8D3
:1030C00002F039F817B000BDA4E70068044988424F
:1030D00008BF02F037B97047403802400070004026
:1030E00000000140704700000A4A13689B0840EA4C
:1030F0008300106001290848026842F0040202605F
:103100000FBF30BF40BF20BF20BF016821F00401C6
:10311000016070470070004010ED00E038B5040019
:1031200001D1012032BD00F021F808B900F022F8E9
:1031300000F012F800F023F8FFE7416100F001F819
:1031400032BD2068C16841F40051C1600020686050
:1031500020216970A9707047242068702068C168B8
:1031600021F40051C160204600F06BBA04F138052B
:103170006878704700212970204600F087BD2068DC
:10318000016921F4904101612068416921F02A011F
:1031900070472DE9F843054605F138070C46787865
:1031A0002028164698463DD1002C14BF002E012041
:1031B00039D03878012835D0012139700020786065
:1031C00021227A7002F0C6F8AE848146EE8403E0D4
:1031D000296814F8010B4860E88C30B3E88C411E74
:1031E000E9844B46A868CDF80080B0F5805F0DD12A
:1031F00000F025F870B920882968C0F308004860FD
:103200002869002814BF641CA41CE5E700F017F827
:103210000028DDD0032006E02020787000213970DE
:10322000002000E00220BDE8F283CDF800804B468C
:103230000022402100F005F80028EDD0EAE7002246
:103240008021284649E110B500F138035C78202C34
:1032500018D109B1140001D1012010BD1C78012C36
:1032600010D001241C7001628284C2840021596044
:1032700021225A7019700068C26842F08002C26050
:10328000002010BD022010BD10B500F138039C785D
:10329000202C22D109B1140001D1012010BD1C78CD
:1032A000012C1AD001241C7081628285C285002104
:1032B000596022229A7019700168CA6842F48072BB
:1032C000CA6001684A6942F001024A610068C16847
:1032D00041F02001C160002010BD022010BD38B5B2
:1032E000054601242868C16821F4F07100F020F936
:1032F000286B40B129684A69110647BF0FF269225D
:10330000026500210165686B40B129684A69510670
:1033100047BF0FF26D2202650021016528684169EF
:103320000A060DD5416921F080014161286B38B151
:1033300000F0BDFE00281DBF0020296B0865002499
:10334000286841694A060CD5416921F04001416174
:10335000686B30B100F0ABFE80B1696B002008658E
:1033600000E05CB10020E884E885E863202105F1F5
:10337000390001704170284601F0F2FF002032BD93
:10338000416921F040014161606B704738B50446E6
:1033900025682968EA686B6911F00F0007D1880673
:1033A0005DD593065BD52046BDE8324000E1D807E5
:1033B00002D412F4907F52D0C80705D5D50503D5A5
:1033C000E06B40F00100E063480705D5DD0703D559
:1033D000E06B40F00200E063880705D5DD0703D508
:1033E000E06B40F00400E063080705D5DB0703D578
:1033F000E06B40F00800E063E06B00286CD08806CA
:1034000004D5910644BF204600F0D2F820684069F8
:10341000E16B0A0701D440061BD5204600F08FF867
:10342000206841694A060FD5FFF7AAFF60B10FF285
:103430002D110165606B00F03AFE00284CD0606BE6
:10344000016DBDE8344008472046BDE8324000F039
:10345000AEBC204600F0ABFC0020E06331BD0806A6
:103460002AD5130628D594F83900212834D1A0682C
:10347000B0F5805F206A0BD10188C1F30801696053
:1034800020690028206A0CBF811C411C216203E0D6
:10349000411C216200786860E08C401EE08480B2AC
:1034A000D0B92068C16821F08001C1602068C1687E
:1034B00041F04001C16031BD48060DD551060BD524
:1034C000E86820F04000E860202184F839102046A8
:1034D000BDE8324000F06ABC31BD2DE9F041069CE8
:1034E00005460E4690461F46286801683140B142A5
:1034F0000CBF01200020404517D114F1010FF3D07B
:1035000024B101F027FFC01B8442EDD22868C168B6
:1035100021F4D07100F00CF805F138002021417041
:10352000817000210170032000E00020BDE8F081DF
:10353000C1602868416949084900416170470168D4
:10354000CA6822F49072CA6001684A69520852003F
:103550004A61202180F83A1070470000806B0021FA
:10356000C185C18400F023BC806B026B0021116512
:10357000416B00291CBF096D002900D10CE0704788
:10358000806B426B00211165016B00291CBF096D26
:10359000002900D100E070470022C284C28500F1FA
:1035A0003901C26320230B704B7001F0D9BE0000BB
:1035B00080B590F83A10222941D18168B1F5805F39
:1035C00012D101690368826A0029596805D1C1F3E3
:1035D00008011180826A911C04E001F0FF01118052
:1035E000826A511C81620FE001690029816A04D15D
:1035F0004A1C826203685A6805E04A1C82620368BA
:103600005A6802F07F020A70C18D491EC18589B2D5
:1036100099B90168CA6822F02002CA600168CA68C4
:1036200022F48072CA6001684A69520852004A61F5
:10363000202180F83A1001F045FB002002BD022055
:1036400002BD2DE9F0470446642522681169E0684F
:1036500021F44051014311611926D3684948A168FA
:10366000034020690B4361690343E0690B43034353
:10367000D3605169A06921F4407101435161E3694C
:1036800041484249B3F5004F3BD18A4218BF8242BC
:103690000ED101F05CFD074601F059FD804601F0B6
:1036A00056FD814601F053FD824601F050FD0DE0CC
:1036B00001F045FD074601F042FD804601F03FFD67
:1036C000814601F03CFD824601F039FD6168490008
:1036D00000F06DF8AE46BCFBFEFE05FB1E77FF005A
:1036E00032376423B7FBF3F35B0003F4F87300F0A5
:1036F0004FF8ED0032356420B5FBF0F000F0070024
:1037000039E08A4218BF82420ED101F020FD0746FF
:1037100001F01DFD804601F01AFD814601F017FD04
:10372000824601F014FD0DE001F009FD074601F0AD
:1037300006FD804601F003FD814601F000FD824652
:1037400001F0FDFC6168890000F031F8AE46BCFB79
:10375000FEFE05FB1E773F0132376423B7FBF3F310
:1037600003F0F00300F014F82D0132356420B5FBAE
:10377000F0F000F00F002168C3188B60BDE8F087FF
:1037800000000000F369FFFF001401400010014039
:1037900003EB021306FB0AF74643B7FBF1F2B6FB55
:1037A000F1F06421B0FBF1F105FB1125704777437F
:1037B000B7FBF1F36422B3FBF2F206FB08F3B3FBB1
:1037C000F1F706FB09F3B3FBF1FC704780B55F48E6
:1037D0005F4901600622426000234FF410224FF43B
:1037E00000118360C360026141618361838301F0E2
:1037F000B9FD18B1BDE80140FFF774BC01BD38B593
:1038000086B0044601A8142101F090FA2468504DB6
:10381000AC422DD10020009000224E48016941F0B9
:1038200000710161016901F000710091009900923D
:103830004FF4C051036843F00103036002220068A3
:1038400000F001000090009843480191029200218D
:103850000391032209210591049201A900F082F845
:1038600000220521142002F0A7F8142002F0C1F86C
:1038700007B030BD10B58AB0002105910022069234
:103880000092019202920392049201210791089101
:103890000E22099269462D4C204601F0DAFD08B14E
:1038A000FFF720FC204601F03DFE08B1FFF71AFCAF
:1038B0000221204601F05BFF08B1FFF713FC274807
:1038C00000210422C160826008210022016102758A
:1038D0000AB010BD10B500F018F8002004F118036C
:1038E0000A5C1A54401C0828FADB04F1200304F196
:1038F00018022146154801F053FE28B1206A042819
:1039000000D10BE04FF0FF3010BD144C1AB104226F
:10391000A26060607047A260206070476FF0010095
:1039200010BD10B50E4C04F11C032246002101F01D
:10393000A2FE08B1FFF7D6FB04F11C016068226803
:10394000BDE81040104302F0CDB9000078450020DA
:10395000006400403038024000000240F045002082
:10396000144600202DE9F84703460C464FF00008A6
:10397000AA480F210122256802FA08FC0CEA050971
:10398000E14540F0B9806568022D18BF122D4FEA5D
:10399000880A10D14FEAD80503EB850E0AF01C0601
:1039A000DEF8205001FA06F7BD43276907FA06F64C
:1039B0003543CEF820504FEA480E03251E6827797C
:1039C00005FA0EF5ED4307F003072E4007FA0EF750
:1039D0003E431E606668012E18BF022E03D0112ED2
:1039E00018BF122E10D19E68E7682E4007FA0EF716
:1039F0003E439E605E6826EA0C076668C6F30016C2
:103A000006FA08F63E435E60DE683540A66806FAB0
:103A10000EF63543DD606568ED006DD50025009537
:103A20004FEA980C05687E4F45F4804505600AF022
:103A30000C0A056805F480450095009D57F82C6038
:103A400001FA0AF526EA0505764EB34208BF0026BC
:103A500022D0754EB34208BF01261DD0734EB3422B
:103A600008BF022618D0724EB34208BF032613D0F7
:103A7000704EB34208BF04260ED06F4EB34208BF4B
:103A8000052609D06D4EB34208BF062604D06C4E01
:103A9000B3420CBF0726082606FA0AF6354347F854
:103AA0002C506FEA090C674F3D680CEA050E6568FB
:103AB000EE0348BF49EA0E0EC7F800E07D680CEA45
:103AC000050E6568AE0348BF49EA0E0EC7F804E06C
:103AD000BD680CEA050E6568EE0248BF49EA0E0EA5
:103AE000C7F808E0FD680CEA050E6568AD0248BF3E
:103AF00049EA0E0EC7F80CE008F10108B8F10F0F03
:103B00007FF639AFBDE8F1872DE9F84F03460D4642
:103B100000244C48424900950122009E02FA04F517
:103B20002E40AE426AD14FEA940C4FEA840A51F813
:103B30002C700AF00C0E4FF00F0B0BFA0EF808EA7F
:103B40000709384FBB4208BF002722D0364FBB427F
:103B500008BF01271DD0354FBB4208BF022718D030
:103B6000334FBB4208BF032713D0324FBB4208BFBD
:103B700004270ED0304FBB4208BF052709D02F4F76
:103B8000BB4208BF062704D02D4FBB420CBF0727FE
:103B9000082707FA0EF7B94512D151F82C7027EA19
:103BA000080741F82C70F6430768374007604768FC
:103BB00037404760876837408760C7683E40C660C7
:103BC00003266700BE401F68F64337401F600AF0B7
:103BD0001C0AE70803EB87070BFA0AFAD7F82080DC
:103BE00028EA0A0AC7F820A09F6837409F605F68EC
:103BF00027EA05055D60DD683540DD60641C0F2C3B
:103C00008BD9BDE8F18F0069084018BF0120C0B210
:103C1000704702B9090481617047000044380240CE
:103C20000838014000000240000402400008024041
:103C3000000C024000100240001402400018024034
:103C4000001C0240003C014080B55048504900F043
:103C50000BF800B116E001BD80B54E484E4900F0AA
:103C600003F800B10EE001BD01604FF4E132002322
:103C70000C2142608360C360036141618361C36161
:103C8000FFF74CBABDE80140FFF72CBA10B586B07B
:103C9000044601A8142101F049F821683C4C3F4832
:103CA000A14224D100210091426942F010024261F8
:103CB0000022416901F010010091009900924FF437
:103CC000C061036843F0010303600222006800F052
:103CD000010000900098324800F02AF800220521E7
:103CE000252001F069FE252001F083FE1EE02A4A0E
:103CF00091421BD100210091026942F480220261AD
:103D00000022016901F480210091009900924FF492
:103D10004061036843F0020303600222006800F080
:103D20000200009000981F4800F002F806B010BD95
:103D3000019102920121039103220721059104922E
:103D400001A9FFF70FBE80B50068114A16499042DD
:103D50000DD1486820F0100048604FF4C061104851
:103D6000FFF7D2FEBDE80240252001F04DBE0A4A11
:103D700090420AD1086820F4802008604FF4406126
:103D8000BDE804400748FFF7BFBE01BDF84400206E
:103D90000010014038450020004800403038024003
:103DA0000000024000040240403802407047704763
:103DB00038B584B06846102100F0B8FF4FF4803069
:103DC00000215D4C5D4D6060A16001202061207686
:103DD0004FF08051002084F82000E1624FF06060D5
:103DE000A06200210520E061E16000200121606106
:103DF00084F8301025602046FEF7FAFD08B1FFF781
:103E000071F905200121009001910022029269467A
:103E10002046FEF739FF08B1FFF764F9042100914D
:103E2000022200F01DF808B1FFF75CF90F210091A4
:103E3000032200F015F808B1FFF754F907210091AB
:103E4000042200F00DF808B1FFF74CF906210091AB
:103E5000052200F005F808B1FFF744F905B030BDC0
:103E6000019269462046FEF70FBF70B586B0044642
:103E700001A8142100F05AFF2568304EB54259D1EF
:103E80000020009000222E482E4D416941F480719F
:103E90004161416901F480710091009900920368C9
:103EA00043F001030360016801F0010100910099F2
:103EB0000092F021036843F00403036003220068CA
:103EC00000F00400009000981F4801910292002128
:103ED000039101A9FFF746FD2020032101900291E3
:103EE0000022039201A91948FFF73CFD00216960F7
:103EF000E9604FF480611648286029614FF4006042
:103F000068614FF40051A9614FF48070E8614FF48B
:103F1000003129620420002268620121AA60A9629E
:103F2000EA622A63284600F015F808B1FFF7DAF8CC
:103F3000A563AC6306B070BDE843002000200140DB
:103F400030380240E44200200000024000080240F5
:103F50001064024070B5044601F0FCF906460CB945
:103F6000012070BD04F13405002028700221697021
:103F70002068026852085200026022681068C10777
:103F800022D501F0E7F9801B0628F6D3202028620D
:103F900003216970032070BDB0F5005F09D1032EC5
:103FA00042D8DFE806F00C0A0C02B1F1C07F3BD129
:103FB00005E0022E03D9F61E36D1C80134D54021C2
:103FC00029620120687070BD1368DFF89C02616887
:103FD0000340A0680B43E168034320690B43616918
:103FE0000343A0690B43E1690343206A0B43616A01
:103FF0000343042903D1E16A206B01430B4313609F
:1040000023685A69606AD208042840EAC2020BD1C8
:10401000A66AE16A324339B1A0690028BCD1002EFA
:1040200018BF022EC9D0C0D35A61204600F03AF919
:10403000A96A3F228A4082600020286201216970BB
:1040400070BDF8B5044604F1340600253078776A6F
:10405000012801D10220F2BD0120307070780128C2
:1040600021D1022070703562204600F00BF9B06A51
:104070003F2101FA00F0B8602068016841F01601A4
:1040800001602068416941F080014161F06820B120
:104090002068016841F0080101602068016841F072
:1040A0000101016001E0357002252846F2BD90F85B
:1040B0003510022903D08022426501207047052176
:1040C00080F8351000680268520852000260002033
:1040D00070472DE9FC41044604F134060020634991
:1040E00000904FF41650776A0A683D68B2FBF0F80A
:1040F000B06A082100F0BDF80ED0206802685307AE
:104100000AD5026822F004020260B06A8140B960F8
:10411000316A41F001013162B06A25FA00F1CA0743
:104120000BD521684A69110607D5012202FA00F071
:10413000B860306A40F002003062042100F098F864
:1041400008D021680A68930704D5B860306A40F047
:1041500004003062102100F08BF819D021680A6841
:10416000130715D5B860206801684A0307D50068B1
:10417000010309D5716959B12046884708E00168F3
:10418000CA0501D400F079F8F16809B120468847E2
:10419000B06A202100F06DF843D021680A68D30688
:1041A0003FD5B86020687178052920D1026822F0D7
:1041B000160202602068416921F080014161F068C7
:1041C000002804BF7069002802D0206800F055F86C
:1041D0003F22B06A8240BA600021317001227270C1
:1041E000F16900293CD02046BDE8FC410847016840
:1041F0004A0307D5006801030FD4316989B120460D
:1042000088470EE00168CA0507D4016821F0100153
:1042100001600020307001227270B16809B120463F
:104220008847306AE0B1306AC10713D50520707045
:10423000206801684908490001600098401C8045D9
:10424000009003D320680168CA07F6D400203070BC
:1042500001217170B16919B12046BDE8FC410847E0
:10426000BDE8F381000000003F8010F0180000203E
:10427000B06A01FA00F005427047016821F00801B8
:104280000160704730B50468256825F480252560F5
:1042900063608068402802D1A260E16030BDA16007
:1042A000E26030BD30B5016808A401F0FF02103AA9
:1042B0001823B2FBF3F2890A8902A55CC565042ABA
:1042C00028BF091D8165084630BD00000006101694
:1042D00000061016704770472DE9F843064617464A
:1042E00084B088469946B80001F0B8FD05001AD0A0
:1042F000542001F0B3FD040012D00D990C982563F1
:10430000002203920191009002944B463A464146A6
:10431000304600F00DF8204600F046F8012004E099
:10432000284601F024FE4FF0FF3005B0BDE8F083D1
:104330002DE9F0470A9E8146306B00EB8202101F88
:10434000C0084FEAC00A00228C5CB01880F83440E4
:10435000885C10B1521C102AF6D3089D002086F804
:104360004300062D099C88BF062506F14407F56227
:104370003D6078609846301D01F057FE06F1180048
:1043800001F053FE3661C5F10705B5617662002084
:10439000B860387342464946504601F083FE3060AB
:1043A00004B12660BDE8F0872DE9F04100F062F825
:1043B000DFF88853DFF8A483E86C401CE864142617
:1043C000A86A28BBAC62E86C012829D1002706FB4B
:1043D00007F0404401F01CFE7F1C072FF7D305F1C6
:1043E000740001F015FE05F18807384601F010FE53
:1043F000284601F00DFE05F1140001F009FE05F15B
:10440000380001F005FE05F17400E8622F6307E053
:10441000A86D28B9E06AA96ACA6A904228BFAC624E
:10442000A86E401CA86600F07BF94643211D08EBEE
:10443000060001F0FDFD01F0C2FEA86D08B100F01C
:104440007FF9BDE8F08180B588B1DFF8F022116F07
:1044500021B100F012F800F022F9FEE7116F491CBB
:104460001167002100F07CF900F03BF808B900F07A
:1044700011F901BD044601F089BE502080F3118876
:1044800070473EB5DFF83C430FF2483104F19C0021
:10449000019000250095002380220FF20D20FFF7E8
:1044A0001BFF502101280ED181F3118800F0F7F88D
:1044B0004FF0FF30E0660121A1652565BDE837407A
:1044C00001F012BE37BD10F1010FFBD181F311884D
:1044D00000F0E5F8FEE7DFF8EC02016F491C016728
:1044E000704770B5DFF85462306F0024002528B99A
:1044F000502181F3118800F0D2F8FEE701F046FE6A
:10450000306F401E3067306F002836D1F06CD8B95C
:1045100033E0F068C46800F031F800F0FEF8E06ABB
:10452000716DDFF89C3201228240114371651422C3
:104530005043211D184401F07BFDE06AB16ACA6A4C
:10454000904224BF0121316630680028E1D10CB1CE
:1045500000F0D5F8F46D3CB100F014F808B101207A
:104560003066641EF8D1F565306E30B1DFF8581250
:104570004FF08050012500F091F8D8E004F11800C8
:1045800001F07CBD2DE9F843DFF8B071386F0026EB
:1045900000284FD13C6D641C3C6511D1F86A00685D
:1045A00028B1502181F3118800F079F8FEE7F86A0C
:1045B000396BF9623863786E401C786600F09FF8BA
:1045C000F86EDFF8FC9184424FF0140825D31AE00E
:1045D000281D01F053FDA86A18B105F1180001F07B
:1045E0004DFDE86A796D012282401143796508FB2F
:1045F00000F0291D484401F01BFDE86AB96ACA6A47
:10460000904228BF0126F86A006880B1F86AC16844
:10461000CD6868688442DBD2F866B86AC06A08FB75
:1046200000F059F80010022907D3012605E04FF0E9
:10463000FF30F1E7F86D401CF865386E00B10126D7
:1046400079E0DFF8F820106F10B101211166704792
:1046500010661421506DB0FA80F3C3F11F034B4371
:10466000DFF85C11C85838B9502181F31188BFF3C5
:104670004F8FBFF36F8FFEE7C81800F10803416842
:1046800049684160994204BF496841604068C16817
:1046900091627047DFF830114FF080500860BFF32F
:1046A0004F8FBFF36F8F704770B5DFF8B040DFF802
:1046B000145111E001F06AFD286AC668301D01F04E
:1046C000DDFCE86C401EE864686B401E686301F026
:1046D00076FD304600F009F8686B0028EAD12168C1
:1046E0000229F9D3FFF7D6FFF6E710B50446206B91
:1046F00001F03DFC2046BDE8104001F038BCDFF879
:104700003C10C86A006810B94FF0FF3203E0C86A75
:10471000C268D0684268CA667047201D01F0AEBC0E
:104720000122E06A696D824011436965704701F0BA
:1047300046FD284670BD3046BDE8F283E4400020C7
:10474000A86AC16AE06A814207D21F4A4FF08051CD
:104750001160BFF34F8FBFF36F8F7047844100200C
:10476000F8B5184D2F6D0C46A96A0646081D01F0D4
:1047700085FC30B9A86A696DC06A01228240914304
:10478000696516F1010F05D124B1A86A011D05F173
:1047900038001BE0A86AF6194660BE42A86A05D236
:1047A000011D286BBDE8F44001F04FBC011DE86A13
:1047B00001F04BFCE86E864238BFEE66F1BD0000AA
:1047C00084410020E440002004ED00E0BDE8F44016
:1047D00001F02EBC49444C450000000080B50B4858
:1047E000016841F400710160026842F48062026075
:1047F000016841F480710160032001F0D0F80020CD
:1048000001F02CFD01F068FD002002BD003C0240DB
:104810002DE9F04186B06846142100F087FA0024A3
:104820004548464EDFF81881059441F2230501689A
:10483000444C41F0800101604FF68037026802F07D
:1048400080020592002205990592036843F0010356
:104850000360016801F00101059105990592036863
:1048600043F004030360016801F004010591059918
:104870000592036843F002030360016801F002013E
:104880000591059905924FF48471036843F0100374
:104890000360006800F01000059005982046FFF7BF
:1048A000B8F9002229463046FFF7B3F9002239460D
:1048B0004046FFF7AEF90821009101220021029144
:1048C0000391019269462046FFF74CF800F03CF84E
:1048D000009569463046FFF745F800F035F8009737
:1048E00069464046FFF73EF84FF480600021009093
:1048F0000191029140466946FFF734F84FF4807108
:104900000091112201920121029100220392694635
:104910002046FFF727F84FF4007000F01BF83046F0
:10492000FFF720F8032000F015F84046FFF71AF8CB
:1049300006B0BDE8F08100003038024000040240BB
:10494000001002400000024001200190002202926B
:104950000392704700210090019101220292694662
:104960007047000080B500200090002209480168CF
:1049700041F4800101600521006800F4800000908E
:104980000098382001F018F8BDE80240382001F006
:1049900030B800BF30380240244A2548254980B548
:1049A000426000234FF4804201608360C360026173
:1049B00043618361C361036201F0AEFC18B1BDE8DD
:1049C0000140FEF78FBB01BD38B586B0044601A893
:1049D000142100F0ABF92468164DAC4224D100201C
:1049E000154C00901222216841F002012160C02183
:1049F000206800F002000090009810480191029297
:104A000001210391032204210591049201A9FEF7DB
:104A1000A9FF00200090216941F400112161206963
:104A200000F400100090009807B030BDA08601008F
:104A3000444300200054004030380240000402404B
:104A4000D0B586B002A8102100F070F923A4204848
:104A5000D4E900671F4C206040F28F20CDE9006749
:104A60000021E0606160A16021616161A161204677
:104A700001F0F0FC08B1FEF735FB4FF480500290D6
:104A800002A9204601F0CCFD08B1FEF72BFB202146
:104A90000091002201926946204601F0B7FE08B15C
:104AA000FEF720FB06B0D0BD81B0006808498842FF
:104AB0000BD1002208480092016841F00201016018
:104AC000006800F002000090009801B070470000FC
:104AD00000040140B84400204438024000000000B7
:104AE0000000000038B586B001A8142100F01EF9BE
:104AF000DFF8A8102CA42568294C009521607F20A0
:104B00000022A060FF216260E16022616261A26117
:104B1000204601F09BFE08B1FEF7E4FA0020ADF854
:104B200004008DF8060004900590012201A920469A
:104B300001F0D9FE08B1FEF7D5FA012100228DF867
:104B400000108DF801108DF802108DF803206946D1
:104B50000122204601F028FF08B1FEF7C3FA002227
:104B60004FF4C871204601F0C5FF08B1FEF7BAFA4C
:104B700007B030BD00680949884200D0704780B551
:104B800008480122026005210022032000F014FFE2
:104B9000BDE80240032000F02CBF000000280040C8
:104BA000384600203C0E47420000000001B5414954
:104BB000887E30B94FF6FF73012269463E48FEF702
:104BC000E8FA009802BD000018B599B0FEF752FE51
:104BD0003A48384CFDF734FF394801F048FCFDF7FE
:104BE000A7F80120A07604F16C0000F037FF14A8AC
:104BF00035A100F038F8002114A8FEF7D0F9A0661E
:104C0000A07E28B942F21070FEF7E0F9FDF7CCFD66
:104C10000DF13C0031A100F026F80AA834A100F003
:104C200022F805A837A100F01EF868463AA100F066
:104C30001AF804F16C010FA8FEF7B1F9A06504F1B0
:104C40006C010AA8FEF7ABF9E06504F16C0105A858
:104C5000FEF7A5F9206604F16C016846FEF79FF99E
:104C600060661AB010BD1422FCF74EBB38B50024A4
:104C7000104D00E02C6C0A20FEF7A8F9286C401CAF
:104C80002864E87E08B1002CF4D0E87E50B1286C8E
:104C9000001B0A2806D3E86B6430E8632C6CFDF730
:104CA00091F8E8E7E87E0028E5D1002CE3D0002465
:104CB000E1E7000010420020F8440020E843002013
:104CC000B844002070470000987900086D4C000837
:104CD000000000000000000080000000A47900082F
:104CE00025750008000000000000000080000000A2
:104CF000B879000899750008000000000000000065
:104D000080000000CC7900085F5A00080000000015
:104D10000000000080000000E0790008396D000804
:104D2000000000000000000080000000002201F0F0
:104D30007DBF00002DE9F843040017D02078B74E5E
:104D4000C10745D5B06800F00C00042807D0B06852
:104D500000F00C0008280BD17068410208D53068BB
:104D6000810335D56068002840F0BA80012053E106
:104D70006068B0F5803F04D1306840F48030306026
:104D800011E0B0F5A02F306806D140F480203060EB
:104D9000316841F4803105E020F4803030603168C2
:104DA00021F480213160606868B100F0D3FA0546D3
:104DB0003068810300F1948000F0CCFA401B652834
:104DC000F6D3032028E100F0C5FA054630688103D8
:104DD00040F1868000F0BEFA401B6528F6D3F0E76C
:104DE00000F0B8FA401B022840F2A780E9E7E0682B
:104DF00070B10121396000F0ADFA054630688107D5
:104E000000F1CB8000F0A6FA401B0228F6D9D8E7C3
:104E1000386000F09FFA05463168880763D500F0D6
:104E200099FA401B0228F7D9CBE7086000F092FA04
:104E30000546706F810775D500F08CFA401B02287B
:104E4000F7D9BEE70528306F06D140F0040030677F
:104E5000306F40F0010005E0400840003067306FDF
:104E600020F00400306741F28938A06868B100F092
:104E700071FA8146306F810700F19C8000F06AFA78
:104E8000A0EB09004045F5D39BE700F063FA8146AB
:104E9000306F810740F18E8000F05CFAA0EB0900D2
:104EA0004045F5D38DE700F055FA401B022840F24B
:104EB000968086E700F04EFA001B022840F2A78099
:104EC0007FE70020386600F045FA0446306881012B
:104ED00040F1A18000F03EFA001B0228F6D970E7ED
:104EE00020784F4F81071BD5B06810F00C0F09D008
:104EF000B06800F00C0008287FF479AF70684102B8
:104F00003FF575AF3068810703D5E06801287FF46D
:104F10002DAF3168206921F0F80141EAC00131600C
:104F2000217808070DD560693E4900283FF47DAF20
:104F300001220A6000F00EFA0546706F81077FF5C6
:104F40004FAF207841073AD5306C0025C1000AD414
:104F500000950125316C41F080513164306C00F0D6
:104F6000805000900098DFF8C080D8F80000C1059C
:104F70001BD4D8F8000040F48070C8F8000000F09E
:104F8000E9F98146D8F80000C1050ED400F0E2F935
:104F9000A0EB09000228F5D913E73068216920F059
:104FA000F80040EAC1003060BAE7A06801287FF449
:104FB00049AF4DE71DB1306C20F080503064A069DE
:104FC00048B3B16801F00C0108293FF4CFAE0228C4
:104FD0007FF477AF0020386600F0BCF905463068F2
:104FE00081013FF560AFE269206A616A0243A06A0D
:104FF000400842EA8112401E42EA0042E06A42EA68
:10500000006272600121396600F0A4F9044630683C
:1050100081017FF54FAF0020BDE8F28300380240E8
:1050200000004742800E4742007000402DE9F041E9
:1050300004000F4677D0584E306800F00F00B84299
:1050400002D200F072F86ED12068544D810712D55B
:10505000400703D5A96841F4E051A9602078010711
:1050600003D5A86840F46040A860A968A06821F052
:10507000F0010143A9602178C8074CD56068012878
:1050800002D129688A0305E0022818BF032803D14A
:1050900029688A0103D446E029688A0743D5A968AC
:1050A000890840EA8100A86000F054F98046A868A9
:1050B000616800F00C00B0EB810F2CD000F04AF9D1
:1050C000A0EB080041F289318842F0D3032020E0B0
:1050D0002078410705D5AA68E06822F4E05202432F
:1050E000AA602178080706D5A968206921F46041E3
:1050F00041EAC001A96000F05DF8AA682849294B7F
:10510000C2F30312895CC8401860002001F0A6F8C1
:105110000020BDE8F081306800F00F008742D7D250
:1051200000F003F8D4D00120F3E73770316801F0C4
:105130000F01B94270471D490120086070471948A6
:10514000194A006813681A49C3F3822206E0154819
:10515000154A006813681649C3F34232895CC84097
:10516000704710B50F2202600F4A136803F0030363
:105170004360146804F0F0048460136803F4E0539F
:10518000C3601268D20802F4E05202610248026869
:1051900002F00F020A6010BD003C024000380240DD
:1051A0002C79000818000020083802404C004742C3
:1051B0009C7B000830B5144C606800F00C0004289B
:1051C00002D0082802D01DE0104830BD22682068B7
:1051D0000023410202F03F0204D525680B49C5F3C4
:1051E000881003E020680A49C0F38810A1FB000181
:1051F000FCF796F82168C1F30141491C4900B0FB56
:10520000F1F030BD024830BD0438024000127A008F
:105210000024F400F8B50446444D207810F0050F42
:105220003AD0434E0020306000F094F807462968D9
:10523000080126D500F08EF8C01B0228F7D90320FC
:10524000F2BD00F087F8801B022822D9F7E700F0B2
:1052500081F8801B022835D9F1E700F07BF8801B2C
:1052600041F28931884248D3E9E7A86820F4F81070
:10527000A860286FE168C1F30B010843286700208C
:10528000F2BDA168606800F049F8326000F062F891
:10529000064628680101D4D520788107EFD5002083
:1052A0000090296C234F41F080512964286C00F054
:1052B000805000900098396841F48071396000F0A6
:1052C00049F806463868C105C1D5286F10F440700A
:1052D0001EBFE16801F44071884211D0286F164961
:1052E00001220A6000230B6020F440702867286FB9
:1052F000C10705D500F02EF80646286F8107ACD50A
:10530000E16801F44070B0F5407FAED1AA680B4867
:1053100022F4F81201401143A960AAE7090741EA03
:1053200080110748016001227047000000380240E8
:105330006800474200700040400E4742FFFCFF0FEC
:10534000843802400248416802788A1842607047F7
:105350000C00002001484068704700BF0C0000208E
:105360007047000038B504001ED094F8200010B932
:105370002046FEF744FA2068016821F0020101602E
:10538000FFF7E8FF0546206841688A074ED5FFF71A
:10539000E1FF401B0B28F6D304E0FFF7DBFF401BC7
:1053A0000B2846D300F0E4F8012032BD016821F05B
:1053B00080010160607E00F048F80CBF41F04001C0
:1053C00021F040010160A07E00F03FF80CBF41F0E9
:1053D000200121F020010160E07E00F036F80CBFD2
:1053E00021F0100141F010010160207F00F02DF844
:1053F0000CBF41F0080121F008010160607F00F05E
:1054000024F80CBF41F0040121F004010160A268FE
:10541000E0682169024360690A43616802432068C9
:10542000491E0A43C26100216162A9E000F0ADF8A3
:10543000054620684168CA07AFD5217E0129B5D14C
:10544000026842F080020260B4E701282068016827
:105450007047F0B590F82020012A18BF022A54D1D5
:105460004D4A106840F001001060136823F47C532B
:10547000136010684B6A40EA0320106001200B7D26
:1054800003F01F0300FA03F3D069DC432040D0612E
:10549000424800F5117500F51076C86958B9D06812
:1054A0002040D060CF6800F034F80F68C7EA004CA5
:1054B000486945F830C0C86901280BD1D068184345
:1054C000D0600F6800F025F8CE684F69C6EA00404A
:1054D00045F837008869002850680CBF2040184301
:1054E000506008690028506907BF044054611843A0
:1054F0005061086A012802D1D0690343D3610020BA
:105500001168490849001160F0BD416A41F48021E9
:10551000A8E04868D1F814C0C0EA074746F83C70D4
:105520008868704738B5044694F82000012816D1E1
:10553000022184F82010206802685208520002609C
:10554000FFF708FF054620684168C8070DD5FFF73B
:1055500001FF401B0B28F6D300F00AF803E0606A55
:1055600040F400206062012032BD0020606232BD44
:10557000606A40F400306062052184F820107047B2
:10558000012084F82000002032BD016841F00101B3
:105590000160FFF7DFBE00000066004000640040CD
:1055A000F0B590F820400568AD68012C18BF022CBA
:1055B00055D115F0E05F4ED0C5F30164032C03D341
:1055C000416A41F400014DE00125A5401D60240120
:1055D0000368CE6803F5C0758B681BB90B6846EA93
:1055E000435603E04F6843EAC7031E432E51056844
:1055F0000B6905F5C2763351097D012906D103688F
:1056000003F5C2710D5945F480750D519379D17927
:1056100055791B0443EA0163117943EA05230568C0
:1056200025440B43C5F88C319378D17855781B0409
:1056300043EA01631178026843EA052322440B43DD
:10564000C2F88831006800F5C070015941F00101CD
:1056500001510020F0BD416A41F4001102E0416AAD
:1056600041F4802141620120F0BD416A41F4802172
:10567000416201207047F0B590F82040012C18BF1E
:10568000022C66D10029046801D1E56800E0256993
:1056900015F0030F03D1416A41F400115CE00D01E4
:1056A00004F5D876745914F004049460066806F57D
:1056B000D87603D17459640D146002E07659F60867
:1056C0005660046804F5D8767759C7F34004D4606F
:1056D00000F043F806F00F06166100F03EF8C6F33E
:1056E0000724946100F039F8360C566102682A44A8
:1056F000D2F8B8411C7006682E44D6F8B821120AB8
:105700005A7004682C44D4F8B821120C9A700468BA
:105710002C44D4F8B821120EDA7000F023F81A7174
:1057200000F020F8120A5A7100F01CF8120C9A715D
:1057300000F018F8120EDA71006821B9C16841F062
:105740002001C16003E0016941F0200101610020F6
:10575000F0BD416A41F4802184E704682C44D4F808
:10576000B461704704682C44D4F8BC21704790F8A9
:105770002020012A18BF022A03D100684269114380
:1057800000E072E74161002070472DE9F84F0546BF
:105790004FF0000828684669D0F804B08468D0F853
:1057A0000C90D0F810A08769F10745D5E20713D512
:1057B00001218160A00703D5284601F050FA0BE0D3
:1057C000600748BF4FF4006806D420074EBF4FF46F
:1057D0008058284601F044FAE00515D52A684FF4B0
:1057E0008071A005916003D5284601F03AFA0BE0DC
:1057F000600548BF48F4005806D420054EBF48F461
:105800008048284601F02EFAE00315D52A684FF4A7
:105810008031A003916003D5284601F024FA0BE003
:10582000600348BF48F4004806D420034EBF48F444
:105830008038284601F018FA300748BF5FEAC9618E
:1058400004D52968102048F40078C860700748BF64
:105850005FEA097105D52A680820D060284601F062
:1058600004FAB00707D52968C86810F0030F1CBFF9
:105870002846FEF756F8700648BF5FEACA6104D5AD
:105880002968102048F480680861B00648BF5FEAC4
:105890000A7105D52A6808201061284601F0E6F94A
:1058A000F00607D52968086910F0030F1CBF2846C9
:1058B00001F0DDF9B00348BF5FEACB6105D52A6886
:1058C00010205060284601F0D3F9F00348BF5FEA8A
:1058D0000B7105D52A6808205060284601F0C9F9E7
:1058E000300440D55FEA4B713AD5F00503D5F9078E
:1058F00048BF48F00108B00503D5B90748BF48F0D4
:105900000208700503D5790748BF48F00408300540
:1059100026D517F0700F23D007F07007102F0CD08A
:10592000202F0DD0302F0ED0402F0FD0502F10D061
:10593000602F08BF48F480780DE048F008080AE0BE
:1059400048F0100807E048F0200804E048F040085C
:1059500001E048F080082868816921F070018161C8
:10596000042029684860B8F1000F08D0686A48EA46
:10597000000068622846BDE8F24F01F07BB9BDE83F
:10598000F18F00000901020002D42D4881547047B4
:105990002C4B02F00F021A4402F8041C70472A4BE9
:1059A00019684FF6FF020002114000F4E06008435E
:1059B000264908431860704738B5234B1C68C4F368
:1059C0000223C3F10704052C28BF04241D1D072D45
:1059D00034BF0023DB1E012505FA04F4641E2140B8
:1059E000994005FA03F35B1E1A401143BDE83440A9
:1059F000C8E7010007D4012200F01F01144B8A40C0
:105A0000400943F82020704701000BD4012200F028
:105A10001F01104B8A40400943F82020BFF34F8FED
:105A2000BFF36F8F7047BFF34F8F07490A480A686B
:105A300002F4E06202430A60BFF34F8F00BFFDE74C
:105A400000E400E018ED00E00CED00E00000FA05D5
:105A500000E100E080E100E00400FA0570472DE974
:105A6000F04D0026DFF858430FF2D035DFF854A38D
:105A7000DFF854B36FF001089AE000F0ECF840450D
:105A800004D100F0D9F800F0E6F83E46DFF83C73A8
:105A900000F022F9404504D100F0CEF800F01CF9E6
:105AA000761CDFF82C7300F011F9404504D100F0AA
:105AB000C3F800F00BF9761CDFF8187300F000F95A
:105AC000404504D100F0B8F800F0FAF8761CC24F57
:105AD00000F0F0F8404504D100F0AEF800F0EAF82C
