:020000040800F2
:10000000A84A00204D7300080D7100080F71000808
:10001000177100081F710008277100080000000018
:10002000000000000000000000000000696B0008F4
:100030002F71000800000000116B0008FD5F000830
:100040007173000875730008797300083171000836
:100050007D730008817300088573000889730008A8
:100060008D73000891730008957300089973000858
:100070009D730008A1730008A5730008A973000808
:10008000AD730008B1730008B5730008B9730008B8
:1000900037710008BD730008C1730008C5730008FC
:1000A000C97300083D710008CD730008D1730008C2
:1000B000D5730008D9730008DD730008E1730008E8
:1000C000E5730008E9730008ED730008F173000898
:1000D000F573000843710008F9730008FD73000808
:1000E0000174000805740008097400080D74000804
:1000F0001174000815740008197400081D740008B4
:100100002174000825740008297400082D74000863
:100110003174000835740008397400083D74000813
:1001200049710008417400084574000849740008CA
:100130004D74000851740008557400085974000883
:100140005D74000861740008657400086974000833
:100150006D740008717400087574000879740008E3
:100160007D74000881740008857400088974000893
:100170008D74000891740008957400080000000058
:10018000997400089D7400082DE9F14FB2B09A46A9
:10019000914600230691CDE900333C9A0F930DF16F
:1001A0004A0114914A7011E0329E4F462C4617F8CE
:1001B000011B0698B0470028069000F026810F9892
:1001C000401C641E0F90F2D13296A94499F80000A9
:1001D000252808D10021002209910A920B910C9246
:1001E0000D910E920FE06A464FF0FF31484601F044
:1001F0001BF8050002D10F9800F00CBED4D50125E4
:10020000E3E741F0010119F8010F2028F9D0232874
:100210000CD02B2804D02D2805D0302809D00BE095
:1002200041F00201EFE741F00401ECE741F0080181
:10023000E9E741F01001E6E72A280FD1DAF80020BB
:1002400052F8040BCAF800200028119003D5404250
:10025000119041F0040109F1010914E01192DFF855
:10026000503B0AE01198984205DA00EB800402EB5B
:100270004402303A119209F1010999F80020A2F1E3
:1002800030000A28EED399F800002E2803D04FF052
:10029000FF32109229E019F8010F2A2809D1DAF863
:1002A000000050F8042BCAF80000109209F101096F
:1002B0001BE02D280CBF09F101090020002210923B
:1002C000DFF8EC2A0BE040B9109B934205DA03EB10
:1002D000830504EB4504303C109409F1010999F8B9
:1002E0000040A4F130030A2BEDD3ADF848100FF60F
:1002F000C42099F8001000F0A1FF08B119F8010B13
:100300008DF84A009DF84A00682805D199F8000048
:1003100068280CD1622106E06C2804BF99F800001F
:100320006C2804D171218DF84A1009F101091FA828
:10033000089019F801BBBBF125012DD01C3900F044
:100340006281091F022940F25E810E392AD0491FBD
:1003500000F06584093900F05681891E00F0FB84A5
:10036000491E00F0A784491E022940F24C81091F52
:1003700000F0A084491F00F0BB80491E00F04F84AC
:10038000491E65D0C91E21D0891E00F04884C91EAF
:1003900000F0458400F0FEBC25238DF87C3001215F
:1003A00009912AE06C208DF84A00DAF8000050F834
:1003B000042BCAF80000002A43D114994878002879
:1003C0003DD04FF0FF340FF6F41012E09DF84A00D4
:1003D0006C28EAD0DAF8000050F8044BCAF80000A4
:1003E0000794D4B91499487898B14FF0FF340FF6B8
:1003F000E81000F02FFF201A07D132981FAA04A995
:1004000000F00BFD00287FF5E1AE4FF0FF3000F06B
:1004100001BD0FF6E0100790EFE7109D002D04D509
:10042000204600F037FF044607E02A46204600F049
:100430004DFF002814BF041B2C460A94DDE70FF67D
:10044000B812329804A900F06EFD0028D5D5DCE77B
:10045000DAF8001051F8040BCAF8001020F000047C
:10046000002121F0FF351FABCDE904450793DDE9FD
:10047000042308993C2413B90AB91098A0B102F0DA
:100480000F05641E30353A2D08DA12090D5542EA7F
:1004900003721B0908BF002A02D105E02735F4E7E3
:1004A00007980D19A842EAD308190790C4F13C0235
:1004B00010980A92824209DABDF84810821A4FF663
:1004C000EF7001400C92ADF8481096E7002894D5E3
:1004D0009DF8480000F0140010288ED1119B099956
:1004E0000C985B1A1B1A9A1A002A86DD0C9284E774
:1004F0001499487820B14FF0FF340FF6001078E7D8
:100500009DF84A00622862D0682819D06A2840D035
:100510006C2806D071284DD074282DD07A281ED092
:1005200064E0DAF8001051F8040BCAF8001020B9A2
:100530004FF0FF340FF640405BE70F9901605CE736
:10054000DAF8001051F8040BCAF8001020B94FF087
:10055000FF340FF624404CE70F9901804DE7DAF89D
:10056000001051F8040BCAF800100028E5D14FF034
:10057000FF340FF604403CE7DAF8001051F8040BA2
:10058000CAF800100028D8D14FF0FF340FF6E83039
:100590002FE7DAF8001051F8040BCAF8001020B960
:1005A0004FF0FF340FF6D03023E70F9AD317C0E98E
:1005B000002322E7DAF8001051F8040BCAF8001003
:1005C0000028F2D14FF0FF340FF6AC3011E7DAF823
:1005D000001051F8040BCAF8001020B94FF0FF3496
:1005E0000FF6943005E70F99017006E7DAF800106E
:1005F00051F8040BCAF8001000289ED14FF0FF34C8
:100600000FF67430F5E6DAF80020D21D22F007026A
:10061000CAF80020D2E900010832CAF80020CDE96A
:100620000401C80F02D009982D210AE0BDF8480046
:10063000810702D509982B2103E0C00705D5099849
:1006400020211FAA1154401C09901FA80999DDE917
:10065000044543184BF020006128079315AE0BD0DA
:100660001098002802D50620109005E001BF4BF03D
:100670002000672801211091DDE9040148004015A0
:10068000401C0A4611D109030FD0ABF161070320CA
:100690001A2F0A9002D20FF6F82101E00FF6F4218A
:1006A0000322184600F03EFEA7E650B9120308D117
:1006B000ABF1610703201A2F0A9018D30FF6DC2143
:1006C000EEE7DDE9040102AA00F038FECDE90401FD
:1006D0004BF02000612811D1079830210170821C55
:1006E0000792BBF1610F0CBF7821582102E00FF691
:1006F000A821D5E741700998801C0990DDE9040123
:1007000020F0000231F0004308BF002A02D100258A
:10071000002446E14BF02008B8F1610F40F09580CD
:100720001098002847BF21210391401C0390039F8C
:100730007F1C2046294600220023DDE9044500F005
:1007400035FE38BF85F0004502998DF85420091F09
:10075000002F02910DF1550034DD06462046294652
:100760000022002300F03CFE2BD21C2200F052FE9F
:1007700004460D4600F0ECFEFF1F002F804609DD09
:1007800000F002FF02460B462046294600F0C4FF57
:1007900004460D46F01D0721B8F1000F0CDD491E7F
:1007A0005EBF08F00F0200F8012D4FEA2818F3D5BC
:1007B00002E0002200F8012D491EFAD5C61D002FC7
:1007C000CCDC30460DF15501401A03990DF1550668
:1007D00005468842C8BF0D46002D2FD4854206DA53
:1007E0000DF15500415D0829A8BF0F2000DA002057
:1007F000294615AA0A4400E06D1E12F80139491E67
:100800008342F9D00F2804D10DF15500425C521CEF
:100810004254002904D50298001D15AE6D1C0290AB
:10082000681E0BD431180A783032D3B23A2BA4BFE9
:100830005A443A3A401E01F80129F4D5109800288C
:1008400040F1AE80691E1091AAE00299DFF8E82815
:1008500047F29750414391FBF2F2029225F0004596
:10086000C2F10702002A04DD2046294600F041FCBF
:100870000BE052420020DFF8C41800F03AFC0246B8
:100880000B462046294600F0B9FF04460D46B8F154
:10089000660F06BF029F0A37062710983F18142FCD
:1008A000C8BF142730208DF854000020DFF89018BE
:1008B000CDE92E010DF15506002F33DD20462946E6
:1008C00001F0C0F801460A4606F1080304200A2692
:1008D000B2FBF6F606EB860EA2EB4E02303203F8C0
:1008E000012C0A22B6FBF2F202EB820EA6EB4E06B8
:1008F0003036401E03F8026DE9D1083F002F03F1A6
:100900000806D9DD084601F0AFF802460B4620463E
:10091000294600F001FFDDE92E2301F0B3F804467B
:100920000D46CBE70DF15500301A0DF1550604E0E8
:100930000299491E401E0291761C31783029F7D069
:10094000B8F1660F02D10299491C04E0B8F1650FB5
:100950000CBF01210021109D4D19A842B8BF451EB2
:10096000002D1DD4854204DA705D3428C8BF3920BB
:1009700000DC30202946721E531800E06D1E13F86B
:100980000149491E8442F9D0392802D1705C401CCB
:100990007054002904D50298401C16466D1C029024
:1009A000029C00F045FC406A0778DDF8408028B2E0
:1009B000002802DC01250FF2E8764BF020006628C3
:1009C00008BF641C16D0672846D120B210F1040F6E
:1009D00048DB404546DA9DF84800641C010703D413
:1009E00028B24045D8BF804620B2B8EB000848BFC7
:1009F0004FF000080FFA84FB07980A99BBF1000F2B
:100A000000F3B3804A1C0A9230234354B8F1000F1C
:100A100003DC9DF84800010704D50A98411C0A919F
:100A200007990F5418EB0B0FB8BFC8F1000424B29C
:100A30006042A0442AB20D909045B8BF4546079B3E
:100A40000A982DB20B952A463146184400F06AFCEC
:100A5000A8EB05000E90CCE0BBF1610F17D14FF071
:100A6000700B19E028B2404504DA9DF848100A07D7
:100A700058BF8046B8F1010848BF4FF00008BBF1ED
:100A8000670F14BF4FF0450B4FF0650B04E0BBF14F
:100A9000410F08BF4FF0500B0A98411C0A91B8F162
:100AA000000F079916F8012B0A5403DC9DF8480043
:100AB00001071AD50A98411C0A91B8F1000F07994D
:100AC0000F5412DD6D1E28B28045B8BF4546079809
:100AD0000A9B2AB23146184400F024FC0A992DB230
:100AE00069180A91A8EB05000D9007980A99084427
:100AF00021B2002980F800B003D42B224270821C5E
:100B000004E02D2242700C46821C644200212EAB70
:100B100020460AE004460A2094FBF0F000EB800532
:100B2000A4EB450403F8014B491C00B20028F1DC9A
:100B3000012906DC4BF02000652804BF302002F8B4
:100B4000010B00292EAB08D1302002F8010B06E082
:100B5000491E585C303002F8010B0029F8DC079977
:100B60000A980844121A0B9243E0084429B222B2B0
:100B7000914219DA2AB2314600F0D4FB0A992DB21B
:100B800069180A91ABEB0500B8F1000F0D9003DC7A
:100B90009DF84800020704D5079847540B99491C53
:100BA0000B91CDF8388024E0314600F0BBFB0A9869
:100BB0002D1B5844B8F1000F0A9003DC9DF8481033
:100BC0000A0703D5411C0A9107990F5428B28045A2
:100BD000B8BF454607980A9B2AB206EB0B0118449A
:100BE00000F0A0FB0A982DB228180A90A8EB050087
:100BF0000D909DF8480000F0140010287FF4FDAB24
:100C0000099A0A990D988A180B9982180E988A18D1
:100C1000821811988242BFF6F0AB821A66E49DF802
:100C20004A00622808D068280ED06A2814D06C28A0
:100C30001FD0712810D01CE0DAF8001051F8040B16
:100C4000CAF80010C0B21AE0DAF8001051F8040B2C
:100C5000CAF8001080B212E0DAF80020D21D22F0AB
:100C60000702CAF80020D2E900010832CAF80020C1
:100C700006E0DAF8001051F8040BCAF80010002161
:100C8000CDE904019DF8480001075AD5DDE90423A8
:100C9000002B08BF002A54D04BF02000782850D1F8
:100CA00009981FA930220A54401C431C099301F8DB
:100CB00000B046E09DF84A00622808D068280ED0AF
:100CC0006A2814D06C281FD0712810D01CE0DAF8E4
:100CD000001051F8040BCAF8001040B21AE0DAF81C
:100CE000001051F8040BCAF8001000B212E0DAF854
:100CF0000020D21D22F00702CAF80020D2E900012C
:100D00000832CAF8002006E0DAF8001051F8040BA7
:100D1000CAF80010C117CDE90401002902D50998CD
:100D20002D210AE0BDF84800810702D509982B2142
:100D300003E0C00705D5099820211FAA1154401CC3
:100D400009901FA809990144079104A8594600F089
:100D50004AF9FFF752BB9DF84A006C280BD00121DD
:100D60000991DAF8000050F8041BCAF800008DF869
:100D70007C10FFF742BBDAF8000050F8041BCAF8F9
:100D8000000002914FF0FF3210920021039102AA5D
:100D9000FFF757BB25210122BBF1000F8DF87C1016
:100DA00009923FF42AAB8DF87DB00221FFF7F8BA23
:100DB000CBCCCC0C686A6C747A4C00007072696E93
:100DC00074665F733A2062616420256C73206172DF
:100DD00067756D656E7400007072696E74665F731E
:100DE0003A2062616420257320617267756D656EBB
:100DF0007400000000000000000000007072696EC6
:100E000074665F733A20256E20646973616C6C6F41
:100E10007765640033B0BDE8F08F2DE9FC410F46E3
:100E2000064690467A6B7869396ABC6A121AB869C4
:100E3000521A796A121AF869521A121A97F8380077
:100E4000141B41070FD42020002C8DF800000ADD70
:100E5000254601236A463946304600F075F90028D8
:100E60005DD16D1EF5D17B6942463946304600F0B2
:100E70006BF9002853D130208DF800003D6A002D19
:100E800009DD01236A463946304600F05DF9002845
:100E900045D16D1EF5D1BB69FA683946304600F080
:100EA00053F900283BD130208DF800007D6A002DD9
:100EB00008DD01236A463946304600F045F970BB2B
:100EC0006D1EF6D1F868B969FB694218394630469B
:100ED00000F03AF918BB30208DF80000BD6A002DF3
:100EE00008DD01236A463946304600F02DF9B0B9D5
:100EF0006D1EF6D197F8380041070DD52020002C43
:100F00008DF8000008DD01236A463946304600F0BE
:100F10001BF920B9641EF6D10020BDE8F6814FF020
:100F2000FF30BDE8F6812DE9F8470D46A3B02F6BE1
:100F300082469046002F48BF6FF0004700F077FED2
:100F4000696B401801AA0021C2E90011812828BF5D
:100F50004FF0FF3044D289461EE0A74230DB68697B
:100F6000201881280BD30021696303AA2946504623
:100F7000FFF753FF5FEA000922D40020686103AB4A
:100F80006E6922466946981900F0CCF9A6196E617F
:100F900058F8040BA0B13F1B002F11DDD8F800104A
:100FA00001AA684600F042F90446002C05D4D8F89E
:100FB00000000028D1D1641ECFD54FF0FF390EE0DC
:100FC000B9F1000F504604D103AA2946FFF725FFC7
:100FD0008146B9F1000F02D100206861686348467C
:100FE00024B0BDE8F0872DE9FC4304466F2925694C
:100FF00008BF082605D041F02000782814BF0A2633
:101000001026D4E900233C2790469946642918BF4E
:10101000692905D1002B03D5D8F1000869EB4909EE
:10102000B9F1000F08BFB8F1000F0CD1206B50B917
:10103000082E3AD194F83800010736D530203B27E6
:1010400085F83B0031E08DF80010404649463246B5
:10105000F31700F0F1FD3032D0B27F1E3A2801972D
:101060000EDAEA55404649463246F31700F0E4FDF1
:1010700080465FEA010908BFB8F1000F05D108E01A
:101080009DF800001218513AEBE7E068E919884230
:10109000DBD3082E09D194F83800010705D5E85DA7
:1010A000302802D07F1E3020E855C7F13C02A261F3
:1010B000E919E160206B824208DA821A22624FF657
:1010C000EF70218F01402187BDE8F38300280ED502
:1010D00094F8380000F01400102808D1636B61699F
:1010E000206A5B1A1B1A9A1A002AC8BF2262BDE83E
:1010F000F3832DE9D04306460F4614464FF000080F
:10110000DFF8409012E0E00707D542464B463046F4
:10111000394600F0B7FC06460F464046494642466F
:101120004B4600F0AFFC641080468946002CEAD1A3
:1011300030463946BDE8D083A08601000000F03F6C
:1011400084D7974100002440F8B505460E4617465F
:101150001C4600205CB117F8011BB068A847B060BE
:1011600030B1F06A401CF0620020641EF3D1F2BD81
:101170004FF0FF30F2BD00007072696E74663A2065
:1011800062616420256E20617267756D656E740002
:101190006E616E004E414E00696E6600494E46001B
:1011A0003000B1F5807F02D34FF0FF3070470170FF
:1011B000012070470078401E8041C043C00F704737
:1011C0001C48704770B45368D41801E05B1C491E7A
:1011D000042B08DA00291FBF057804F8015B10F81A
:1011E000016B002EF2D1536070BC704738B51446C5
:1011F0001D4661B1FFF7E6FF61686A6B20469047C4
:101200006FF00102811A02D0491E01D001E003E013
:1012100005E00021616032BD6FF0010032BD4FF08A
:10122000FF3032BDDA6B1047024BDFE7014BF9E7C5
:1012300001487047540000201C000020C9B2027809
:101240008A421AB11CBF10F8012FF9E718BF00201D
:1012500070472E0080B500B906A005490B681BB188
:1012600022220021984701E000F069FD222002BD02
:10127000A4460020636F6E73747261696E74206897
:10128000616E646C65723A20626164206D6573738F
:101290006167650000F10103810704D010F8011BAC
:1012A000820781B1FAD10268A2F10131914311F0B4
:1012B000803104BF50F8042FF6E709BAB1FA81F182
:1012C00000EBD100401CC01A70474300C9B283072D
:1012D00006D0521E22D310F8013B9942F7D11FE0ED
:1012E000083A13D302F1040241EA012141EA014123
:1012F00050F8043B121F21BF4B40A3F1013C2CEAE4
:10130000030C1CF0803FF3D0C9B2001F083210F864
:10131000013B521E28BF91EA030FF8D818BF0120E5
:10132000401E70474AB1000011F8013B521E00F800
:10133000013B1CBF11F8013BF8E7704710B514469C
:1013400000F002F8226010BDC1F30A5343B14A0015
:1013500012F5001F28D2A3F2FE32A1EB0251704712
:1013600050EA410C20D001F0004C31EA0C01B1FAF6
:1013700081F204BFB0FA80F3D2180B3AB2F1200325
:101380002CBF00FA03F1914041EA0C013EBFC2F1CB
:10139000200C20FA0CF319439040524240F2FD33E6
:1013A000D21A01EB035170470022704741EA030C47
:1013B00050EA4C0C52EA0C0C4FF4001C09D307D035
:1013C0001CEB410F9CBF1CEB430F8B4208BF8242BA
:1013D00070471CEB430FFBD8994208BF90427047FF
:1013E00041EA030C50EA4C0C52EA0C0C4FF4001C7E
:1013F00009D307D01CEB410F9CBF1CEB430F994254
:1014000008BF904270471CEB410FFBD88B4208BFCE
:1014100082427047124254D440F2FF7C1CEA1153BE
:101420000FD0634531D09B1863453CBF01EB02519F
:10143000704701F0004141EA0C510020AFF30080F9
:10144000704750EA410320D001F0004C91EA0C01B2
:101450001CD0B1FA81F30B3B9A420DD9D21A9940B4
:1014600051EA0C01C3F1200C20FA0CFC61449840B5
:10147000531C40F2FF7CD7E7914041EA0C01C2F1D6
:10148000200C20FA0CF3194390407047B0FA80F317
:101490001533202BE0D3202AEED3203A203B9A426A
:1014A00009D9D21A00FA03F141EA0C010020531CB9
:1014B00040F2FF7CB8E700FA02F141EA0C0100209B
:1014C0007047524240F2FF7C1CEA11530DD0634535
:1014D000DBD0B2EB030C3CBFA1EB025170470CF127
:1014E000010221EA035141F4801150EA410CCCD0B1
:1014F00001F0004C352A27DC30B481EA0C01B2F14E
:10150000200309DAC2F12003044601FA03F5D040B2
:101510002843D1409C400CE0C3F12002450020FA52
:1015200003F418BF44F0010421FA03F091400C4386
:10153000002174F1004550F1000051EB0C012442F0
:1015400030BC7FF47BAF70476146002076E7000037
:10155000C1F30A5340F21E42D31A0CDDCA0283F3D0
:10156000070342EA505242F00042DA4002EBE172D5
:1015700082EAE17070476FEAE17203F2E13008B18C
:1015800082F000407047000010F0004160B148BF99
:101590004042B0FA80F29040D21CC2F5846241EA27
:1015A000025202EBD021400570470000841A71EB13
:1015B000030604D26E40001BB141121973414FF46F
:1015C000001C1CEB410F34BF7CEB430683E00C0D89
:1015D000A4EB1356362E00F37C80012E45EAC3237C
:1015E00041DC43EA525312BFD20292025B08240547
:1015F00045EAC12141EA5051D2EBC020994125D49E
:1016000007D1B0FA80F610FA06F162D00020203639
:1016100008E0B1FA81F6B140C6F1200220FA02F2E8
:101620001143B0404FEAF474B4EB465434F0010671
:101630004FEA74040AD8D6F50016760D04F000447B
:10164000F04061FA06F25040F1404840C00A40EADA
:10165000415021F0004128BF5FEA500550F10000E1
:1016600044EBD12135E0DB0A45EAC121C90AB6F1D4
:1016700020050EDD42EA0242120CC5F1200603FAF3
:1016800006F6EB4042EA06056D42984161F1000121
:101690000DE062FA06F5F240554063FA06FC82EA74
:1016A0000C02F3405A406D42904161EB030111F48A
:1016B000801F05D1641E620502D06D004041494182
:1016C00021F48011430875F1004350F1000041EB13
:1016D000045170BC70471CEB410F15D223F000433E
:1016E00052EA43060BD04FEA4C0CBCEB410F04D836
:1016F0000C0D661E342EB7DDEBE7801A994150EAD7
:10170000410608BF0021E4E708BF1CEB430F28BFD8
:101710006FF00001DDE7000070B491EA030F4FF0B5
:1017200000457FF543AF6B40841A71EB030603D28B
:10173000001BB141121973414FF4001C1CEB410F07
:1017400034BF7CEB430442E00C0DA4EB1356352E62
:101750004FDC45EAC323DB0A45EAC121C912B6F1D1
:1017600020050DDD63FA05F6EB4086EA030512421B
:1017700018BF45F00105C01851F100010CD213E06B
:1017800062FA06F5F2405540F3415A40B340F34047
:101790005A408018594107D349085FEA30005FEA90
:1017A000350528BF45F0010501F58011420875F1A6
:1017B000004250F1000041EB04514E0016F5001FAD
:1017C00070BC38BF70470020090D090570471CEB3D
:1017D000410F10D252EA43060BD0BCEB410F05D8A3
:1017E0000C0DAB43661E342EB6DD02E0AB43801811
:1017F000594170BC704770BC70470000F0B540F2B2
:10180000FF7581EA030C0CF0004C15EA11541DBF62
:1018100015EA1357AC42AF42E5E0BC41C1F31301F6
:10182000C3F31303801A994143F4801304D2641E56
:101830000018494180185941C90241EA5051B1FB91
:10184000F3F603FB1611A2FB0675D7EBC020A941E6
:1018500002D2761E80185941C90241EA5051B1FBAB
:10186000F3FE03FB1E11A2FB0E75D7EBC020A941AE
:1018700003D2AEF1010E80185941890241EA90511C
:10188000760546EA8E2EB1FBF3F603FB1611A2FB9A
:101890000675D7EB8020A94102D2761E80185941E7
:1018A000C90241EA50514EEA060EB1FBF3F603FBC2
:1018B0001611A2FB0675D7EBC020A94102D2761EF5
:1018C00080185941C90241EA5051B1FBF3F703FBBB
:1018D0001711A2FB0735D3EBC020A94167F1000720
:1018E0000CBF004247F0010766F3D5274FEA1E31CF
:1018F000B80814F5806412DDBD0775F1004250EBA5
:101900000E5051EB045111F5801F5CBF41EA0C01F0
:10191000F0BD4CF07F6141F0E0410020F0BDBD071B
:101920006D0840EA0E5041F48011D4F10104B4F185
:1019300020060ADAC4F120060200E04001FA06F3AC
:10194000E1401843B24015430EE0342C13DCC6F1DD
:10195000200445EA40056D0820FA06F2154321FAF5
:1019600006F0A1400D43002175F1004250F1000046
:1019700051EB0C01F0BD00205FEA0C01F0BDCFB9C6
:1019800092185B41B3FA83F704BFB2FA82F6BF192B
:101990000B3FB7F120062FBF02FA06F3BB40C7F199
:1019A000200622FA06F638BF3343BA401CB1E419C8
:1019B000641E33E77F4231F00041B1FA81F404BF85
:1019C000B0FA80F6A4190B3CB4F120062FBF00FA40
:1019D00006F1A140C4F1200620FA06F638BF3143D3
:1019E000A0403C1B1AE7AC421ABF05EA1357AF42AE
:1019F00012E050EA41061CBF52EA4306BFE750EA34
:101A00004107304661461CBF41EA0551F0BD52EA2C
:101A1000430C08BFC143F0BD00204FF4001616EB85
:101A2000410F98BF16EB430F08BF16EB410F24BFC1
:101A3000C14305E016EB430F0CBF61464CEA05516C
:101A4000F0BD0000400D40F21E4C40EAC120BCEB4E
:101A5000115C40F0004003D48CF30701C84070478C
:101A60006FEAE1707047000050B1B0FA80F1884031
:101A7000C91CC1F58461090501EBD02140057047FF
:101A80000146704730B540F2FF7C1CEA11541DBF7F
:101A90001CEA1355644565453FE0641981EA030C6F
:101AA0006FF35F530CF0004C43F48013C90241F014
:101AB000004141EA505EC5021100A5FB0202002868
:101AC0004FF00000EEFB01204FF00001E3FB052189
:101AD00018BF42F00102401800214941E3FB0E010A
:101AE000A4F580640D0302D292184041494154F19B
:101AF000010470DD450872F1004250F1000051EB25
:101B00000451A1F5801102D441EA0C0130BD40F22C
:101B1000FF7E4CEA0E51002030BD0CEA135564459F
:101B200018BF654581EA030C0CF0004C41D050EA27
:101B3000410E1CBF52EA430E02E06146002030BD58
:101B400024422C441BD15FEA050EF6D0090302BFE4
:101B500001460020AEF1140EB1FA81F5AEEB05049A
:101B600001FA05FE0C35C5F1200100FA05F5C84063
:101B70004EEA000E6FF35F5343F480139CE733F09B
:101B80000043B3FA83F504BFB2FA82FE75440B3DFD
:101B9000641BB5F1200E2FBF02FA0EF3AB40C5F166
:101BA000200E22FA0EFE38BF43EA0E03AA40641C40
:101BB0007CE750EA410E14BF52EA430E6FF0000179
:101BC0004FF4001515EB430F8EBF194615EB410F6F
:101BD0009DE7B4D830BDD4F10104B4F120050FDA8B
:101BE000C4F12005520828BF42F0010210FA05FE98
:101BF00001FA05F57244E2BFE0402843E1400FE0FE
:101C0000352C9ADCC5F1200452EA400220FA05F294
:101C100018BF42F0010231FA05F0A1400A43002149
:101C200072F1004250F1000051EB0C0130BD80B563
:101C3000FFF7C6FA006C02BDD3BBD9B1B2F5803F45
:101C40005BD2022A1ED98C46B1FBF2F102FB11C312
:101C50001B0443EA1043B3FBF2FC02FB1C3380B2CB
:101C600040EA0343B3FBF2F002FB103240EA0C40BF
:101C700000237047022A05D98446B0FBF2F002FB2C
:101C800010C270474AB105D100F0010249085FEA6D
:101C90003000704700220023704700F053B80B005B
:101CA0000200002100207047F7D300220023704774
:101CB000904271EB030CF2D370B5B1FA81F4B3FA30
:101CC00083F52C1BA340C4F1200532FA05F63343FB
:101CD000A2405FF00046E64002E05B085FEA3202A5
:101CE000841A71EB030524BF204629467641F4D3BC
:101CF00002000B003000002170BD70B5B1FA81F414
:101D0000B2FA82F5C4F120046419B4F12006DAD3E2
:101D1000B2405FF00044F440002502E052085FEA60
:101D20003303C61A71EB020E24BF3046714664417C
:101D30006D41F3D302000B002000290070BD01208B
:101D400000F002B87047000080B500F007F8024AC2
:101D500011001820ABBEFBE72600020010B500F012
:101D60003BF8020000230024E4431068A04203D0A3
:101D700011000220ABBE13605068A04203D0111DB9
:101D80000220ABBE536010BDF0B583B0040000F07C
:101D900023F8A10047183D680026F643B54216D146
:101DA000AFF300803D68B5420FD100BF09A000909D
:101DB000002C01D1002000E00420019003200290BB
:101DC00069460120ABBE05003D60AFF300802800EE
:101DD00003B0F0BD3A74740000487047E40000207E
:101DE00080B500F088FE4FF4FA72DFF8F01BDFF8E0
:101DF000F00B01F091F818B10FF6244001F006FA4B
:101E000000F0BAFE00F09DFE00F0CAFE00F0D2FE27
:101E100000F091FE00F0EBFEDFF8C80B0168090A44
:101E2000090241F0AA010160016821F47F4141F4F7
:101E3000AA410160D0F81F104FF0FF31C0F81F1009
:101E4000D0F82320C0F823100022D0F8161021F07B
:101E50007F4141F02051C0F81610D0F80E1021F04B
:101E60007F4141F0C841C0F80E100021DFF8780B27
:101E70000164C27640F6B830BDE8024001F0FCB91A
:101E80002DE9F84F00F037FEDFF85C4BDFF8545BCC
:101E900004F1490004F128068078D5F8171021F0E4
:101EA000704141EA0071C5F8171094F84900D5F85F
:101EB0001710000621F0706100F070600843C5F84B
:101EC000170000F0C5FC0ADC94F8490000281CBF8C
:101ED000E07E002803D0207F08B1607F08B300F0C7
:101EE0003CFE01F047FA00F087FE00F027FE207F5D
:101EF000002804BF94F84900012803D100F018FE1F
:101F000000F054FE00F0A4FC06DC94F84900002820
:101F10001CBFE07E002804D10021E176002020775C
:101F2000B16140F24C41D5F80200000C884207DA5A
:101F3000E07E28B90121E176B061002121774FE0F0
:101F400000F086FC12DAE07E00281CBF207F00280B
:101F50000CD0607F50B1B06948F2E901884205D3E6
:101F600000226277DFF8840AB06139E000F070FC8B
:101F700014DAE07E00281CBF207F00280ED0607F8E
:101F800060B9B06940F6B931884207D3B069DFF86B
:101F9000601A884202D20122627721E000F058FCE8
:101FA0001EDAE07EE0B1B069DFF8481A884217D344
:101FB00000F0C7FD00F0BFFD00F0FCFD00F0DCFD0F
:101FC00000F01EFE00F005FCC5F80A00002101200B
:101FD000207721740020B0610121012001F0DAF99D
:101FE000F16904F14C073868091A062907D3207FE4
:101FF00008B1607F18B1DFF8000A01F0C8FAF16992
:102000003868091A40F2F512914212D3207F08B1C4
:10201000607F70B10121A175002060763168491C94
:102020003160E07F38B90121E177B068401CB060D1
:1020300001E00020E077207D50B10121217494F867
:102040004900002819BF94F8490002280021217591
:10205000607D04F12108002804BFA07D002812D073
:10206000F06978600021217400206075A17501205D
:1020700088F80300D5F80A00000E022801DD00F000
:10208000C7FB94F8490094F84900DFF8709918B13B
:10209000022811D003D32DE0D5F80A0003E0DFF8C1
:1020A0006019D1F80300A96900F0C4FBA86100F031
:1020B00088FBC5F815101DE000F07EFB21F00061E3
:1020C00000F000600843C5F81500D9F81200D5F8F3
:1020D0000910800821F07F4100F080700843C5F8A6
:1020E000090000F069FB21F0807100F08070084366
:1020F000C5F8150098F80000DFF808A948B10021DC
:102100003974012088F8020088F80010CAF8041019
:1021100024E098F8010030B1002188F80210002076
:1021200088F801001AE098F80200B8B1387C072856
:1021300014DA4FF47A710AF1040000F03BFC68B144
:102140000020CAF80400387C00F029FB07BF0120FA
:1021500020760121E175387C401C3874207CDFF842
:10216000A8B8002800F06482207F002840F0608238
:1021700094F8490020B1022800F0EB8068D3FDE21A
:1021800000F00CFD00F0E3FC00F035FB00F00DFB6F
:1021900040F0D270E860D5F8120080B240F0D27002
:1021A000C5F8120000F0F2FA40F08850C5F80D00B2
:1021B000286920F07F4040F088502861686980B22B
:1021C00040F0D2706861D5F80A00000ED5F80A0018
:1021D00019D0000E0328D2D16968EA68120C0A20CF
:1021E000090C42439142CADB00F005FB40F0A040DD
:1021F000C5F80F00E86880B240F0C87000F0C5FA7A
:1022000040F0406011E020F07F4040F04070C5F8A1
:102210000A00D5F80F0020F07F4000F0C6FA40F425
:10222000C80000F0B2FA40F00070C5F80D00E86890
:10223000D5F81210C1EA0000C5F81200D5F80D005B
:1022400000F0FEFAE8686969C1EA0000686195E299
:1022500000F080FC00F0C9FCDFF8A417DFF8A0371D
:10226000D1F84200E968000C0A2290FBF2F0C1EAC2
:102270000041E960186BD5F80F1021F07F41000C88
:1022800041EA0061C5F80F101946D1F84200D5F8AF
:102290001210000C90FBF2F0C1EA0041C5F81210D8
:1022A000586C000C0A28C8BF4FF0206003DC1946A8
:1022B000486C000C0006D5F80D1021F07F41084352
:1022C000C5F80D001C46606C296921F07F41000CA7
:1022D00041EA00612961D4F831006969000C90FB82
:1022E000F2F0C1EA00416961606BD5F8151021F088
:1022F0000041000E41EAC071C5F81510606CDBF8B2
:102300003010C1EA0000CBF830006868DBF830100C
:10231000090C090441EA1041CBF83010D5F80A0045
:10232000000E022808BF00F039FCD5F80A00000EA4
:102330000428A8BF00F00BFCD4F80300000E1F28EF
:1023400004DCD4F80300000E032801D1D4F81200F5
:1023500014E200F023FC00F0FAFBD9F81000E96861
:10236000000AC1EA0040E86041F6417300F00EFA4D
:1023700040F09850C5F80D00D9F802006969C1EA2B
:1023800000006861D9F81000D5F81210000AC1EAFF
:102390000040C5F81200D9F8100000F051FAD9F841
:1023A0001300D5F80F1000F045FAC5F80F00D9F862
:1023B0000300D5F80E1000F03DFAC5F80E0000F04D
:1023C000FBF921F00041000E41EAC071C5F815107B
:1023D00000F0F7F9DFF83406C5F815100268DFF8E9
:1023E00030160A4042F4803242F4334202602A68D6
:1023F000120C9A42026822F07F42B4BF42F010628F
:1024000042F098520260DFF80C46D0F8022092B2F7
:1024100042F0D272C0F802208268120A120242F020
:10242000010282606A6883681940120C0A2392FBD9
:10243000F3F204EA0224214381604FF47A7329689D
:102440008268090C22F07F4291FBF3F142EA0162BB
:102450008260A969D0F80A2022F0807201F08071B0
:10246000114300F08DF921F0007100F089F941F07D
:10247000806100F085F921F0006100F081F921F020
:10248000805100F07DF921F00051C0F80A10D0F819
:102490000B1041F07F41C0F80B10C16841F07F4143
:1024A000C160D5F80A00000E08280CD8DFE810F04B
:1024B00009000C0028003D005300B100B100B1003C
:1024C000B10000F0A5F959E1D9F8120020F08070B0
:1024D000C9F8120000F075FB00F07AFB00F07CFBFD
:1024E00000F08AFB00F057F9002808D000F071F9DD
:1024F00040F00070C5F80A000020CAF800003DE175
:1025000000F05CFB00F047F900281EBFD9F812006C
:10251000C0F300600028F2D000F05BF940F040709A
:1025200000F07FF940F0806013E000F04DFB00F018
:1025300032F900281EBFD9F81200C0F3006000284D
:1025400008D000F046F940F0806000F06AF940F0F1
:10255000A060A86112E1D9F81200C0F30060002861
:1025600002BFD9F81100C0F3006000281FD1D9F8CC
:102570001100C0F34060002802BFD9F81100C0F379
:102580008060002813D1D9F81100C0F3C06070B981
:10259000D9F81100C0000AD400F01BF940F0A06087
:1025A000C5F80A00D5F8090020F07F4027E0D9F8E7
:1025B0001100C0F30060002802BFD9F81100C0F379
:1025C000406000280FD1D9F81100C0F380600028C6
:1025D00002BFD9F81100C0F3C060002803D1D9F8B8
:1025E0001100C00004D500F0F9F840F0807006E05A
:1025F00000F093FA38B900F0F1F840F00070C5F837
:102600000900F069B860E868000C01D1F069B860B1
:10261000B4E000F0D6FA00F0DBFA00F0E4FA00F0E3
:10262000EFFAE86880B200F0B0F8C5F80D00A5E058
:10263000207F0028FBD16868000C642838DA98F8FD
:10264000030048B100217974012088F8050088F85A
:102650000310CAF808102BE098F8040030B10021EC
:1026600088F80510002088F8040021E098F805009B
:10267000C0B1787C072815DA4FF47A710AF10800A6
:1026800000F098F970B10020CAF80800787C00F0DA
:1026900086F807BF012020760121E175787C401C77
:1026A000787405E0787C072804BF012188F80410BD
:1026B000207E18B10021217600206076E07D002880
:1026C00004BF607E002808D00021E17501206076FB
:1026D0000121B16100F089FA07E000F03CFA686876
:1026E000000C6428B8BF00F082FAD5F80F0020F083
:1026F0007F40C5F80F00D5F8120080B2C5F812006F
:10270000286920F07F402861686980B26861D5F847
:10271000150020F00040C5F8150000F041FA94F8CB
:10272000490018B1022811D003D327E000F070F857
:1027300005E0DBF8000020F48030CBF80000E07EFC
:10274000C0B1E07ED0B1B069A0B917E000F060F888
:1027500000F037FA00F03CFA00F045FAA86920F0E2
:102760007F40A861E07E28B1E07E00281CBFB069F0
:10277000002803D0BDE8F14F00F0E6B9BDE8F18FC5
:10278000C0F80A10D0F80A107047E860D5F80D00BC
:1027900020F07F4070474FF4FA7150460AE100EB99
:1027A000D0714908B0EB4100704740F09640C5F841
:1027B0000F00E86880B27047D9F81200D5F81510FC
:1027C0007047607ED5F8151021F0006141EAC061C4
:1027D0007047D5F80A0020F07F407047D5F80A000E
:1027E00020F07F4040F0C060C5F80A00D5F809002D
:1027F00020F07F407047D5F80A0020F07F4040F07D
:102800008060C5F80A00D5F80F0020F07F407047BF
:10281000D5F80A0020F07F4040F08070C5F80A002B
:102820007047C5F80A000020CAF80000A86920F027
:102830007F40704721F07F4100F07F4008437047A0
:10284000296921F07F4100F07F40084328617047EB
:10285000D5F80200000CB0F5966F704710B5002255
:1028600064215E4B84B233F814401219401D491E96
:10287000F8D16420B2FBF0F080B210BDF8B5664C20
:10288000584D2688A768322E0EDA0320FFF7E6FFA0
:1028900042F2BF7148434FF47A72B0FBF2F017FA7C
:1028A00080F0A060761C07E02868B7FBF6F1A16015
:1028B000C0EA01402860002626800020FFF7CEFFF6
:1028C00041F24D7100F070F86A68474E80B21E38D0
:1028D000C2EA00426A6006F12C076868D5F8061063
:1028E000C1EA0000C5F806000220FFF7B7FF40F676
:1028F000AF2100F059F8D5F8022080B26430C2EA66
:102900000042C5F802200420FFF7A8FF40F6A661A8
:10291000484340F6FF73AA68B0FBF3F080B2C2EA06
:102920000042AA602868B98DB1EB104F02DA28681E
:10293000000CB8856868F98DB1EB104F02DA686851
:10294000000CF885B8696168884207D1307F08B10A
:10295000707F18B196F82700401C00E0002086F830
:10296000270096F82700642813DD307F08B1707FB8
:1029700078B10121B1773868401C38601E4800F0FA
:1029800006FE01F08DF801F0DFF8002086F8270040
:1029900001E00021B177B86920496060086800282B
:1029A000FCD00A220A70F1BD484340F6FF73B0FB29
:1029B000F3F0704710B5034600201A680A4C12B9AC
:1029C000616C196010BD0A2391FBF3F3616C8A1AE4
:1029D000934238BF012010BD00000000043D0020DC
:1029E000F0430020D44500201842002071820300EB
:1029F00070820300410D0300004500206446002062
:102A0000384400208C460020884200207C4600206C
:102A1000FF0000FF00FFFF0098460020040000E0D8
:102A200048414C5F4144435F53746172745F444D4D
:102A300041204572726F720D0A00000010B5754C8E
:102A4000204600F0E3FB04F1400000F0DFFB2046ED
:102A500000F0DCFB04F1800000F0D8FB04F1C000C2
:102A600000F0D4FB04F5807000F0D0FB04F5A070FA
:102A700000F0CCFB04F5C07000F0C8FB04F5E0707A
:102A800000F0C4FB04F5007000F0C0FB204600F02D
:102A9000BDFB04F1400000F0B9FB00BF0FF29C1138
:102AA00061A000F0B3FB00BF0FF2C4120FF2B4112B
:102AB00066A000F0ABFB04F14000BDE8104000F060
:102AC000A5BB38B5544D0221284601F001FA441E39
:102AD0002846A441012101F0FBF9E40F08B944F0B4
:102AE00002044FF400714D4801F0F2F908B944F0C6
:102AF0000404204632BD10B5494CFFF7E2FF2070B8
:102B00002078012802D0022802D003E0012102E04F
:102B1000607010BD0021617010BD80B54FF4806100
:102B20003D4801F0D5F908B1002002BD802002BD6A
:102B30000122802154E00022802151E00122012164
:102B400031E0002201212EE0012202212BE00022AF
:102B5000022128E041E0002240E080B501F0D8F9F0
:102B60002B4801F0F7F9012200F013F8BDE8084006
:102B700001224FF480713CE080B5002200F009F89A
:102B800000224FF48071274801F0A8F9BDE8024007
:102B90003AE04FF48041204801F0A0B9012200E062
:102BA00000224FF480511D4801F098B901224FF4E2
:102BB000A06115E000224FF4A06111E00122802104
:102BC0000EE0002280210BE001224FF4807107E02B
:102BD00000224FF4807103E000BF01224FF4007126
:102BE0000D4801F07BB90022F8E7012200E0002245
:102BF00008210C4801F072B900224FF40061EFE7A0
:102C000001224FF40061EBE7014801F000BA000037
:102C100000450020D06B0008001002400004024074
:102C200060420020000002404170706C6963617472
:102C3000696F6E203A2025730D0A00004845564FF3
:102C40002045562043686172676572004275696C61
:102C500064204461746520203A2025732025730D7B
:102C60000A0000004D6172202033203230323200E1
:102C700031313A30313A31310000000070B504464C
:102C800000250CB9012070BD04F13006306928B967
:102C9000204601F04AFA0020706130733069C106A5
:102CA00000F192803069DFF8BC1420F4885040F0C5
:102CB00002003061086820F4403008600A686068EB
:102CC00002430A602068416821F4807141602068F5
:102CD0004168226941EA022141602068416821F08F
:102CE0004071416021684A68A06802434A602068D8
:102CF000816821F40061816021688A68E06802438C
:102D00008A602068A16ADFF860249142816821F01E
:102D1000706181600CD021688A68A06A02438A6071
:102D200000F05BF821688A68E06A02438A6001E08B
:102D300000F053F82068816821F0020100F049F8A2
:102D4000227E41EA4201816094F820002168002837
:102D500048680FD040F4006048602068416821F462
:102D60006041416020684168626A521E41EA423116
:102D7000416002E020F4006048602068C16A21F4EC
:102D80007001C1622068C16AE269521E41EA0251C3
:102D9000C1622068816821F4007100F01AF832786D
:102DA00041EA422100F015F821F4806100F011F8A9
:102DB000626941EA822181600020706101203169ED
:102DC00060F30101316100E00125002030732846E5
:102DD00070BD81602068816870472068816821F03B
:102DE00040518160704738B500F06FF801D1022082
:102DF00032BD00F072F836D500F044F846BF906856
:102E000020F00600002000F035F80868DFF85423B1
:102E1000436843F0806343F02003436000F04EF8C2
:102E200017D188420FD0DFF84413884204D11268CA
:102E300012F01F0F17D106E0DFF83413884212D1C9
:102E400000F013F80FD200F0EDF80CD100F031F8DB
:102E500009E0884202BFDFF81C03016811F0405FFF
:102E600001D100F021F8002032BD126802F01F02EB
:102E7000102A70479060002313706FF022000A68D8
:102E8000106070475568DFF8F002054045F4807522
:102E900055605868430504D55368012060F30D332D
:102EA00053605068C3047047016841F0804101607D
:102EB0007047816841F080418160704708681368FD
:102EC000DFF8B81213F01F0F70470146002001F120
:102ED0003C0200901378012B7047012010700868A5
:102EE0008368DC0714D48368DFF8944243F001035D
:102EF0008360DFF890020368B3FBF4F404EB44044E
:102F0000009402E00098401E009000980028F9D13B
:102F10000B689868C4077047F8B50446002004F1B0
:102F20003C0300901D78012D01D10220F2BD01204B
:102F3000187020688568EE070DD48568904E45F0BE
:102F4000010585608F480568B5FBF6F606EB460679
:102F5000009600F0FEF82568A868C6075FD55F6890
:102F60008548074047F480775F606868450504D569
:102F70005D68012060F30D355D605868C50446BF8B
:102F8000986820F006000020986000251D70A36B53
:102F90000FF2F510D863A36B0FF255201864A36BE2
:102FA0000FF25520D8646FF0220025682860206851
:102FB000436843F08063436013462068856845F4A6
:102FC000807585600A46206800F14C01A06B01F015
:102FD00098F92068634A6949136813F01F0F15D1E7
:102FE00088420DD06149884204D1126812F01F0F47
:102FF00015D105E05E49884211D1FFF736FF0ED2A8
:1030000000F010F80BD1FFF754FF08E0884202BF30
:103010005848016811F0405F01D1FFF745FF0020DB
:10302000F2BD1046816811F0405F704778B50246E6
:103030000020009092F83C30012B01D1022072BD9B
:10304000012082F83C0007240B6810680A2B12D379
:103050000A3BC56803EB43039C4025EA0404C460B3
:10306000C3680D688C68A5F10A0606EB4606B440F5
:103070002343C3600FE0056903EB430304FA03F342
:1030800025EA0303036103690D688C6805EB4505B8
:10309000AC40234303611F244B68072B0CD25B1EFB
:1030A000456B00F050F84463436B4D680C886E1E0E
:1030B00000F044F843631BE00D2B0CD2DB1F056BC3
:1030C00000F041F80463036B4D680C88EE1F00F0BC
:1030D00035F803630CE00D3BC56A00F034F8C462B8
:1030E000C36A4D680C88A5F10D0600F027F8C3628D
:1030F000224B98421DD10C681A48122C03D1036848
:1031000043F4800303600B68102B18BF112B10D100
:10311000036843F4000303600868102809D11949C3
:10312000174C0B68B3FBF4F40A204443009400F0FE
:1031300010F8002182F83C10002072BD06EB8606D4
:10314000B4402343704703EB83039C4025EA040407
:10315000704702E00098401E009000980028F9D1C6
:1031600070470000042301400100000F00210140CE
:103170000022014008200140FEF9FFFF002001402D
:1031800040420F0018000020816B0A6C12F0500FB3
:1031900024D1086C40F4007008640A68906810F04C
:1031A000405F04BF087E002815D1D06A10F4700F6C
:1031B00002D0906843050ED4506820F02000506083
:1031C000086C20F480700864086CC20403D4086C96
:1031D00040F0010008640846FFF750BB0A6CD306B4
:1031E00044BF084601F0E4B9896BCA6C104700007F
:1031F000806B01F0DEB90000806B40210164426CFD
:1032000042F00402426401F0D3B900000EB4C0B52C
:10321000024603A800210190009101AB012104485E
:1032200078440C30FCF7B0FF06BC5DF810FB00BF23
:10323000DD40000001460020842918BFC81C7047EB
:1032400080B501F072FA002002BD3EB504460D467D
:10325000B4F90800FFF7EEFF02A9019100902B4698
:1032600022692168606892B201F0A4F9012801D0B6
:1032700000203EBD02983EBD80B500B9012001F09E
:1032800039FA002002BD000080B501F001FC00F019
:1032900017F801F017FC01F0BFFC00F039FE00F058
:1032A000EBFE01F0D3FC00F03BFE00F0F9FB01F077
:1032B00023FD01F06FFD01F0DFFDFFF7C1FFFEE729
:1032C00010B596B030210AA801F04EFE142101A8D5
:1032D00001F04AFE06A8002100220023002480E815
:1032E0001E0028480091026842F080520260006887
:1032F00000F0805000900098234800910921026856
:1033000042F4804202604FF48032006800F4804052
:10331000009000980A910B9201210F9102224FF424
:1033200080011092119108224FF4A871129213910A
:1033300002220421149215910AA801F019FE02211B
:1033400002910F204FF4A051019004914FF480524C
:1033500005920394052101A801F074FF02214FF4A6
:1033600000720691099206A802F030F801F0EFFF12
:1033700016B010BDA4E700680449884208BF02F0F7
:10338000BDB8704740380240007000400000014066
:10339000704700000A4A13689B0840EA83001060E7
:1033A00001290848026842F0040202600FBF30BFE2
:1033B00040BF20BF20BF016821F0040101607047B9
:1033C0000070004010ED00E038B5040001D101208C
:1033D00032BD00F023F808B900F024F800F014F82A
:1033E00000F025F8FFE7416100F001F832BD2068E8
:1033F000C16841F40051C1600020686020216970FB
:103400002020A87000207047242068702068C168C0
:1034100021F40051C160204600F07BBA04F1380568
:103420006878704700212970204600F093BD20681D
:10343000016921F4904101612068416921F02A016C
:1034400070472DE9F843054605F138070C467878B2
:1034500020281646984646D1002C14BF002E012085
:1034600042D0387801283ED00121397000207860A0
:1034700021227A7002F04AF8AE848146EE8403E09D
:10348000296814F8010B4860E88CE0B1E88C411E13
:10349000E9844B46A868CDF80080B0F5805F0DD177
:1034A00000F024F8B8B920882968C0F30800486003
:1034B0002869002814BF641CA41CE5E700F016F876
:1034C0000028DDD007E0CDF800804B4600224021E7
:1034D00000F00EF808B1032006E0202078700021EB
:1034E0003970002000E00220BDE8F2830022802134
:1034F000284600F05AB910B500F138035C78202C4A
:1035000018D109B1140001D1012010BD1C78012C83
:1035100010D001241C7001628284C2840021596091
:1035200021225A7019700068C26842F08002C2609D
:10353000002010BD022010BD10B500F138039C78AA
:10354000202C22D109B1140001D1012010BD1C781A
:10355000012C1AD001241C7081628285C285002151
:10356000596022229A7019700168CA6842F4807208
:10357000CA6001684A6942F001024A610068C16894
:1035800041F02001C160002010BD022010BD38B5FF
:10359000054601242868C16821F4F071C16000F07B
:1035A0004AF8286B40B129684A69110647BF0FF2F3
:1035B0008522026500210165686B40B129684A696E
:1035C000510647BF0FF28522026500210165286878
:1035D00041690A060DD5416921F080014161286BDE
:1035E00038B100F0C9FE00281DBF0020296B086516
:1035F0000024286841694A060CD5416921F0400140
:103600004161686B30B100F0B7FE90B1696B00208A
:10361000086500E06CB10020E8840021E985E863DA
:10362000202105F13900202201704270284601F066
:1036300073FF002032BD2868416949084900416193
:103640007047416921F040014161606B704770B57E
:10365000044620680268014612F00F0FCD684369E6
:1036600005F0200002F0200107D1002918BF002832
:103670005AD02046BDE8704002E1DE0702D415F4BE
:10368000907F51D0D60705D5ED0503D5E66B46F002
:103690000106E663550705D5DE0703D5E56B45F062
:1036A0000205E563950705D5DE0703D5E56B45F013
:1036B0000405E563120705D5DB0703D5E26B42F08D
:1036C0000802E263E26B002A6ED000291EBF0028C8
:1036D000204600F0D5F820684069E16B0A0701D464
:1036E00040061BD5204600F08DF8206841694A0647
:1036F0000FD5FFF7A6FF60B10FF229110165606BCE
:1037000000F03AFE00284FD0606B016DBDE87040BC
:1037100008472046BDE8704000F0ADBC204600F0F0
:10372000AAFC0020E06370BD10062CD529062AD51E
:1037300094F83900212837D1A068B0F5805F206A5D
:103740000CD101882268C1F308015160206900286A
:10375000206A0CBF811C411C216204E0411C2162D3
:10376000226800785060E08C401EE08480B2D8B9B6
:103770002068C16821F08001C1602068C16841F003
:103780004001C16070BD50060ED569060CD5206899
:10379000C16821F04001C1602046202184F8391021
:1037A000BDE8704000F066BC70BD2DE9F041069C9C
:1037B00005460E4690461F46286801683140B142D2
:1037C0000CBF01200020404519D114F1010FF3D0A6
:1037D00024B101F09BFEC01B8442EDD22868C16871
:1037E00021F4D071C1602022FFF725FF05F13800D8
:1037F00020214170827000210170032000E0002030
:10380000BDE8F0810168CA6822F49072CA6001685C
:103810004A69520852004A61202180F83A107047E4
:1038200000000000806B0021C1850022C28400F0EE
:1038300022BC0000806B026B00211165416B0029E6
:103840001CBF096D002900D10CE07047806B426BF2
:1038500000211165016B00291CBF096D002900D1F1
:1038600000E070470022C2840021C185C26300F1DC
:10387000390120230B7020224A7001F04DBE000058
:1038800010B590F83A10222941D18168B1F5805FD6
:103890002AD1826A0169134601BB04686168C1F3D9
:1038A0000801921C82621980C18D491EC18589B2AE
:1038B00059BB0168CA6822F02002CA600168CA6860
:1038C00022F48072CA6001684A69520852004A6153
:1038D000202180F83A1001F027FB16E001684968C2
:1038E00001F0FF01521CDDE701690029816A05D161
:1038F0004A1C826203685A680A70D5E74A1C8262D1
:1039000003685A6802F07F02F6E7002010BD02202B
:1039100010BD2DE9F0470446192622681169E068B8
:1039200021F44051014311616FF06305D3684A48A7
:10393000A168034020690B4361690343E0690B43BD
:103940000343D3605169A06921F44071014351617F
:10395000E36942484249B3F5004F3CD18A4218BF5F
:1039600082420ED101F0FFFC074601F0FCFC8046CC
:1039700001F0F9FC814601F0F6FC824601F0F3FC0F
:103980000DE001F0E8FC074601F0E5FC804601F09F
:10399000E2FC814601F0DFFC824601F0DCFC61685C
:1039A000490000F06EF84FF0640EBCFBFEFE05FB14
:1039B0000E77FF0032376423B7FBF3F35B0003F4A9
:1039C000F87300F04FF8ED0032356420B5FBF0F0ED
:1039D00000F007003AE08A4218BF82420ED101F09F
:1039E000C2FC074601F0BFFC804601F0BCFC8146EA
:1039F00001F0B9FC824601F0B6FC0DE001F0ABFC31
:103A0000074601F0A8FC804601F0A5FC814601F0C4
:103A1000A2FC824601F09FFC6168890000F031F849
:103A20004FF0640EBCFBFEFE05FB0E773F01323704
:103A30006423B7FBF3F303F0F00300F013F82D0158
:103A400032356420B5FBF0F000F00F002168C31898
:103A50008B60BDE8F0870000F369FFFF00140140B0
:103A60000010014003EB021306FB0AF74643B7FBC5
:103A7000F1F2B6FBF1F06421B0FBF1F105FB012599
:103A800070477743B7FBF1F36422B3FBF2F206FB16
:103A900008F3B3FBF1F706FB09F3B3FBF1FC704746
:103AA00080B54C484C4901600622426000234FF427
:103AB00010224FF400118360C36002614161836191
:103AC000838301F02BFD18B1BDE80140FFF760BC16
:103AD00001BD10B586B00446142101A801F044FAD6
:103AE00022683D498A422DD10020009000223B48A7
:103AF000016941F000710161016901F000710091FB
:103B0000009900924FF4C051036843F00103036031
:103B10000222006800F001000090009830480191F6
:103B2000029200210391032209210591049201A927
:103B300000F05CF800220521142001F0B9FF1420E8
:103B400001F0D3FF06B010BD10B58AB00021059179
:103B500000220692009201920292039204920121A5
:103B6000079108910E22099269461A4C204601F0ED
:103B70005AFD08B1FFF70CFC204601F0BDFD08B16D
:103B8000FFF706FC0221204601F06DFE08B1FFF7A9
:103B9000FFFB144800210422C1608260082100223A
:103BA000016102750AB010BD10B50F4C04F11C0381
:103BB0002246002101F0DBFD08B1FFF7E9FB04F12B
:103BC0001C0160682268BDE81040104301F0C3BFCB
:103BD00000000000AC450020006400403038024086
:103BE00000000240FC450020204600202DE9F84F4F
:103BF0004FF0000EBB4ABC4BDFF8F0824FF00F09CC
:103C000006468A460121DAF8004001FA0EF10C401E
:103C10008C4240F0BE80DAF804504FEA8E00022D4C
:103C200018BF122D12D14FEADE0506EB850C00F00D
:103C30001C05DCF8207009FA05FB27EA0B07DAF807
:103C400010B00BFA05F53D43CCF820504FEA4E0C6E
:103C5000032537689AF804B005FA0CF5ED430BF02C
:103C6000030B2F400BFA0CFB4BEA07073760DAF81F
:103C70000470012F18BF022F03D0112F18BF122F6D
:103C800013D1B768DAF80CB02F400BFA0CFB4BEAF3
:103C90000707B760776827EA0101DAF80470C7F30D
:103CA000001707FA0EF739437160F1680D40DAF832
:103CB000081001FA0CF141EA050CC6F80CC0DAF85C
:103CC0000410C90065D50025009500F00C00D8F857
:103CD000001041F48041C8F8001009FA00F7D8F844
:103CE000005005F48045009500994FEA9E0153F875
:103CF000215025EA07077E4DAE4208BF002522D09D
:103D00007C4DAE4208BF01251DD07B4DAE4208BFA1
:103D1000022518D0794DAE4208BF032513D0784D47
:103D2000AE4208BF04250ED0764DAE4208BF052531
:103D300009D0754DAE4208BF062504D0734DAE4282
:103D40000CBF0725082505FA00F0384343F8210089
:103D5000E0431168DAF804500140ED0348BF214305
:103D600011605168DAF804500140AD0348BF2143A7
:103D700051609168DAF804500140ED0248BF2143D8
:103D80009160D1680140DAF80400800248BF214305
:103D9000D1600EF1010EBEF10F0F7FF633AFBDE81B
:103DA000F18F2DE9FC4F81468A4600264D484E4A48
:103DB0000F21012303FA06FB0BEA0A0CDC4540F055
:103DC00081804FEA960E52F82E504FEA860808F08E
:103DD0000C078DF8047001FA07F42540444FB945EB
:103DE00008BF002722D0434FB94508BF01271DD087
:103DF000414FB94508BF022718D0404FB94508BF09
:103E0000032713D03E4FB94508BF04270ED03D4FBE
:103E1000B94508BF052709D03B4FB94508BF06275C
:103E200004D03A4FB9450CBF0727082700959DF8E5
:103E3000045007FA05F5009FAF421BD152F82E50EF
:103E400025EA040442F82E406FEA0C05D0F800E0A1
:103E500005EA0E0EC0F800E044682C404460D0F83B
:103E600008E005EA0E0EC0F808E0C46805EA040C94
:103E7000C0F80CC003247500AC40E743D9F80040FB
:103E80003C40F508C9F8004009EB850E08F01C0518
:103E9000DEF8204001FA05F524EA0508CEF8208076
:103EA000D9F808E007EA0E0EC9F808E0D9F804804E
:103EB00028EA0B0BC9F804B0D9F80CB007EA0B0CD0
:103EC000C9F80CC0761C0F2E7FF674AFBDE8F38FD7
:103ED0000069084018BF0120C0B2704702B9090448
:103EE00081617047003C014008380140443802407D
:103EF000000002400004024000080240000C0240A2
:103F0000001002400014024000180240001C024051
:103F100080B55048504900F00BF800B116E001BDE3
:103F200080B54E484E4900F003F800B10EE001BDE7
:103F300001604FF4E13200230C2142608360C360D2
:103F4000036141618361C361FFF73EBABDE801408F
:103F5000FFF71EBA10B586B00446142101A801F07F
:103F600003F821683C4A3F48914224D10021009146
:103F7000426942F0100242610022416901F01001E1
:103F80000091009900924FF4C061036843F001036F
:103F900003600222006800F001000090009832489F
:103FA00000F02AF800220521252001F081FD2520BE
:103FB00001F09BFD1EE02A4A91421BD10021009195
:103FC000026942F4802202610022016901F4802129
:103FD0000091009900924FF44061036843F002039E
:103FE00003600222006800F00200009000981F4861
:103FF00000F002F806B010BD019102920121039178
:10400000032207210591049201A9FFF7EFBD80B5B6
:104010000068114A164990420DD1486820F01000FE
:1040200048604FF4C0611048FFF7BBFEBDE8024096
:10403000252001F065BD0A4A90420AD1086820F4A3
:10404000802008604FF44061BDE804400748FFF756
:10405000A8BE01BD004500200010014040450020E1
:104060000048004030380240000002400004024096
:1040700040380240704770471FB510220021684643
:1040800001F0F8FD5C4C5D4820604FF48031012068
:104090002061207661604FF060604FF08051A06237
:1040A000E16205200022E0610121A26084F8202065
:1040B000E26084F8301062612046FEF7DFFD08B14F
:1040C000FFF766F90520012100900191002202927C
:1040D00069462046FEF7AAFF08B1FFF759F9042107
:1040E0000091022200F01CF808B1FFF751F90F21EE
:1040F0000091032200F014F808B1FFF749F90721F5
:104100000091042200F00CF808B1FFF741F90621F4
:104110000091052200F004F808B1FFF739F91FBD3E
:10412000019269462046FEF781BF38B586B0044645
:104130001422002101A801F09DFD21682F48814231
:1041400058D100222E482F4D0092416941F48071D0
:104150004161416901F48071009100990092036806
:1041600043F001030360016801F00101009100992F
:104170000092F021036843F0040303600322006807
:1041800000F00400009000981F4801910292002165
:10419000039101A9FFF72AFD20200321019002913C
:1041A0000022039201A91948FFF720FD0021696050
:1041B000E9604FF480611648286029614FF400607F
:1041C00068614FF40051A9614FF48070E8614FF4C9
:1041D000003129620420002268620121AA60A962DC
:1041E000EA622A63284600F015F808B1FFF7D0F814
:1041F000A563AC6307B030BDF04300200020014050
:1042000030380240EC42002000000240000802402A
:104210001064024070B5044601F078F906460CB906
:10422000012070BD04F1340500202870022169705E
:104230002068026852085200026022681068C107B4
:104240000AD501F063F9801B0628F6D320202862E6
:1042500003216970032070BD1368DFF8CC02616828
:104260000340A0680B43E168034320690B43616985
:104270000343A0690B43E1690343206A0B43616A6E
:104280000343042903D1E16A206B0B43034313600A
:1042900023685A69606AD208042840EAC2020AD137
:1042A000A66AE16A324331B1A06988B9002E18BF0D
:1042B000022E1FD016D35A61204600F061F9A96A78
:1042C0003F228A408260002028620121697070BD0F
:1042D000B0F5005F0AD1032EEDD8DFE806F00D0B34
:1042E0000D03E8E7B1F1C07FE5D105E0022E03D967
:1042F000F61EE0D1C801DED5402129620120687098
:1043000070BDF8B5044604F1340600253078776AAC
:10431000012801D10220F2BD0120307096F801C0C1
:10432000BCF1010F24D102207070AC46C6F820C049
:10433000204600F015F9B06A3F2101FA00FCC7F8E9
:1043400008C02068016841F01601016020684169D9
:1043500041F080014161F06820B12068016841F0BE
:10436000080101602068016841F00101016001E07D
:10437000357002252846F2BD90F83510022903D089
:104380008022426501207047052180F835100068C1
:104390000268520852000260002070472DE9FC417B
:1043A000044604F134060020604900904FF4165092
:1043B000776A0A683D68B2FBF0F8B06A082100F03D
:1043C000B8F80ED02068026853070AD5026822F0B8
:1043D00004020260B06A8140B960316A41F00101B3
:1043E0003162B06A25FA00F1CA070BD521684A6923
:1043F000110607D5012202FA00F0B860306A40F0D9
:1044000002003062042100F093F808D021680A68A5
:10441000930704D5B860306A40F004003062102180
:1044200000F086F81BD021680A68130717D5B8601A
:10443000206801684A0307D5006801030BD571693C
:1044400069B1204688470AE00168CA0503D40168BB
:1044500021F008010160F16809B120468847B06A7F
:10446000202100F066F83FD021680A68D3063BD5CA
:10447000B8602068717805291CD1026822F0160204
:10448000026000F05AF8F068002804BF7069002844
:1044900001D000F05EF83F22B06A8240BA6000218D
:1044A000317001227270F169002939D02046BDE8CF
:1044B000FC41084701684A0307D5006801030FD48F
:1044C000316989B1204688470EE00168CA0507D4E2
:1044D000016821F01001016000203070012272702B
:1044E000B16809B120468847306AC8B1306AC1074F
:1044F00010D50520707000F026F80098401C80450B
:10450000009003D320680168CA07F6D400203070F9
:1045100001217170B16919B12046BDE8FC4108471D
:10452000BDE8F381000000003F8010F0180000207B
:10453000B06A01FA00F0054270472068416921F035
:1045400080014161704720680168490849000160A5
:1045500070472068016821F0080101607047000081
:1045600030B50468256825F480252560636080687F
:10457000402802D1A260E16030BDA160E26030BDA0
:1045800030B501461823086807A400F0FF02103A6E
:10459000B2FBF3F2800AA55CCD658002042A28BF35
:1045A000001D886530BD00000006101600061016BC
:1045B000704770472DE9F047804617460D469946EB
:1045C000B80001F061FB040074D0542001F05CFBE2
:1045D00000286CD0089E046304EB8702171FFF08B5
:1045E000FF0007F0070104466A5C631883F8342073
:1045F000685C10B1491C1029F6D3002084F84300F0
:10460000062E88BF0626099DE66204F1440ACAF810
:104610000400CAF80060201D01F017FC04F1180026
:1046200001F013FC2461C6F10706A6616462002054
:10463000CAF8080000218AF80C104A46414638465C
:1046400001F040FC206005B12C6001F0ADFCDFF80A
:104650009853DFF8BC93E86C401CE8641427A86A00
:1046600060BBAC62E86C012830D1002607FB06F085
:10467000484401F0DDFB761C062EF7D905F17400E5
:1046800001F0D6FB05F18806304601F0D1FB284643
:1046900001F0CEFB05F1140001F0CAFB05F1380072
:1046A00001F0C6FB05F17400E8622E630EE02046BF
:1046B00001F070FB4FF0FF30BDE8F087A86D28B91E
:1046C000E06AA96ACA6A904228BFAC62A86E401C20
:1046D000A86600F07DF907FB00F2211D09EB02003E
:1046E00001F0B6FB01F079FCA86D08B100F081F98A
:1046F0000120E1E780B588B1DFF8EC22116F21B12C
:1047000000F00FF800F023F9FEE7116F491C116764
:10471000002100F07FF900F039F808B900F012F933
:1047200001BD502080F3118870473EB5DFF84C433F
:104730000FF2543104F19C000190002500950023F4
:1047400080220FF21D20FFF735FF502101280FD1E5
:1047500081F3118800F0FBF84FF0FF30E066012193
:10476000A16500202065BDE8374001F0CDBB37BD15
:1047700010F1010FFBD181F3118800F0E8F8FEE79A
:10478000DFF8F802016F491C0167704770B5DFF868
:104790005862306F0024002528B9502181F3118818
:1047A00000F0D5F8FEE701F0FFFB306F401E3067E8
:1047B000306F002837D1F06CD8B934E0F068C468A5
:1047C00000F032F800F0C8F8E06A716DDFF8A4324A
:1047D000012282401143716514225043211D184467
:1047E00001F036FBE06AB16ACA6A904224BF012137
:1047F000316630680028E1D10CB100F0DCF8F46DCE
:1048000044B100F015F808B101203066641EF8D1FB
:104810000020F065306E30B1DFF85C124FF0805050
:10482000012500F093F8DAE004F1180001F036BB3E
:104830002DE9F843DFF8B071386F0026002851D118
:104840003C6D641C3C6511D1F86A006828B15021A8
:1048500081F3118800F07BF8FEE7F86A396BF962A2
:104860003863786E401C786600F0A5F8F86EDFF8C3
:10487000049284424FF0140828D320E0F96AC868F3
:10488000C568686884422BD3281D01F007FBA86A1D
:1048900018B105F1180001F001FBE86A796D0122F9
:1048A00082401143796508FB00F0291D484401F05E
:1048B000CFFAE86AB96ACA6A904228BF0126F86A44
:1048C00000680028DAD14FF0FF31F966B86AC06A93
:1048D00008FB00F859F80810022906D3012604E065
:1048E000F866F3E7F86D401CF865386E00B10126F4
:1048F0007CE0DFF8F420106F10B1012111667047E1
:1049000010661421506DB0FA80F3C3F11F034B43BE
:10491000DFF86011C85838B9502181F31188BFF30E
:104920004F8FBFF36F8FFEE7C81800F1080341688F
:1049300049684160994204BF496841604068C16864
:1049400091627047DFF830114FF080500860BFF37C
:104950004F8FBFF36F8F7047201D01F09FBA00008B
:1049600070B5DFF8AC40DFF8145111E001F01CFB2A
:10497000286AC668301D01F091FAE86C401EE864B0
:10498000686B401E686301F028FB304600F009F8B0
:10499000686B0028EAD121680229F9D3FFF7D2FF1A
:1049A000F6E710B50446206B01F0F4F92046BDE8A7
:1049B000104001F0EFB90C49C86A006810B94FF017
:1049C000FF3203E0C86AC268D0684268CA667047AE
:1049D0000122E06A696D824011436965704701F008
:1049E000FCFA284670BD0000EC4000203046BDE8CF
:1049F000F283A86AC16AE06A814207D21E4A4FF078
:104A000080511160BFF34F8FBFF36F8F704700006D
:104A10008C410020F8B5194D2F6D0C46A96A064649
:104A2000081D01F03BFA30B9A86A696DC06A01221D
:104A300082409143696516F1010F05D124B1A86A3E
:104A4000011D05F138001BE0A86AF6194660BE4258
:104A5000A86A05D2011D286BBDE8F44001F005BA33
:104A6000011DE86A01F001FAE86E864238BFEE6681
:104A7000F1BD00008C41002004ED00E0EC4000207E
:104A8000BDE8F44001F0E4B949444C4500000000A1
:104A900080B50B48016841F400710160026842F47E
:104AA00080620260016841F480710160032000F0BF
:104AB000F2FF002001F0CCFA01F008FB002002BD5B
:104AC000003C02402DE9F04186B0142200216846E6
:104AD00001F0D0F800214548454C464EDFF81881DA
:104AE000059141F22305026842F080020260002233
:104AF000016801F0800105914FF680370599059214
:104B0000036843F001030360016801F001010591AE
:104B100005990592036843F004030360016801F0FE
:104B20000401059105990592036843F002030360AF
:104B3000016801F002010591059905924FF4847115
:104B4000036843F010030360006800F01000059054
:104B500005982046FFF7C2F9002229463046FFF7A4
:104B6000BDF9002239464046FFF7B8F90821009107
:104B70000122002102910391019269462046FFF72C
:104B800035F800F03BF8009569463046FFF72EF8FF
:104B900000F034F8009769464046FFF727F84FF4D5
:104BA0008060002100900191029140466946FFF724
:104BB0001DF84FF4807100911122019201210291A0
:104BC0000022039269462046FFF710F84FF4007068
:104BD00000F01AF83046FFF709F8032000F014F847
:104BE0004046FFF703F806B0BDE8F08130380240D8
:104BF0000000024000040240001002400120019029
:104C0000002202920392704700210090019101223C
:104C1000029269467047000080B500200090002293
:104C20000948016841F4800101600521006800F431
:104C3000800000900098382000F03AFFBDE8024064
:104C4000382000F052BF00BF30380240254A2648C5
:104C5000264980B5426000234FF4804201608360A2
:104C6000C360026143618361C361036201F04EFA74
:104C700018B1BDE80140FEF78BBB01BD10B586B091
:104C800004461422002101A800F0F4FF216817480F
:104C9000814224D10022164C00921222206840F05A
:104CA00002002060216801F002010091C0210098FB
:104CB00010480191029201210391032204210591E0
:104CC000049201A9FEF792FF00200090216941F4AF
:104CD00000112161206900F400100090009806B0D6
:104CE00010BD0000A08601004C430020005400408D
:104CF000303802400004024010B586B01022002176
:104D000002A800F0B7FF08220021684600F0B2FFB9
:104D10001D4C1E482060002140F28F20E060616041
:104D2000A16021616161A161204601F08FFA08B1A3
:104D3000FEF72EFB4FF48050029002A9204601F0AE
:104D40006DFB08B1FEF724FB2021009100220192A7
:104D50006946204601F05AFC08B1FEF719FB06B07F
:104D600010BD81B00068094988420BD10022084873
:104D70000092016841F002010160006800F0020049
:104D80000090009801B07047C0440020000401402A
:104D90004438024010B586B01422002101A800F06A
:104DA00069FF04220021684600F064FF284C29486E
:104DB00020600021FF207F22E0606160A26021610D
:104DC0006161A161204601F041FC08B1FEF7E0FA03
:104DD0000020ADF804008DF8060004900590012233
:104DE00001A9204601F07FFC08B1FEF7D1FA0121AC
:104DF00000228DF800108DF801108DF802108DF84A
:104E0000032069460122204601F0CEFC08B1FEF7DE
:104E1000BFFA00224FF4C871204601F069FD08B1C5
:104E2000FEF7B6FA06B010BD00680A49884200D005
:104E3000704780B508480122026005210022032046
:104E400000F036FEBDE80240032000F04EBE000038
:104E500044460020002800403C0E474201B52E4940
:104E6000887E30B94FF6FF73012269462B48FEF762
:104E7000E8FA009802BD000010B5FEF765FE28486C
:104E8000254CFDF7B0FF274801F0EDF9FCF7A8FF2E
:104E90000120A07604F16C0000F05CFE5FF00001E0
:104EA00022A0FEF7D2F9A066A07E28B942F21070C7
:104EB000FEF7E2F9FDF7C2FD04F16C0120A0FEF758
:104EC000C4F9206604F16C0122A0FEF7BEF9606609
:104ED00010BD38B50024104D00E06C6C0A20FEF7C0
:104EE000CBF9686C401C6864E87E08B1002CF4D0F3
:104EF000E87E50B1686C001B0A2806D3286C643029
:104F000028646C6CFCF7BCFFE8E7E87E0028E5D17C
:104F1000002CE3D00024E1E71842002000450020E7
:104F2000F0430020C0440020704700005C7300087C
:104F3000D34E0008000000000000000080000000C8
:104F400024730008116E000800000000000000003B
:104F500080000000387300089F6E00080000000009
:104F60000000000080000000002201F05DBD000094
:104F70002DE9F843040016D02078AE4EC1074AD57B
:104F8000B06800F00C00042807D0B06800F00C00F6
:104F900008280AD17068410207D5306881033AD5E4
:104FA0006068002837D1012041E16068B0F5803F9A
:104FB00004D1306840F48030306011E0B0F5A02FAB
:104FC000306806D140F480203060316841F480318F
:104FD00005E020F480303060316821F480213160B8
:104FE000606860B100F092FA05463068810312D41F
:104FF00000F08CFA401B6528F7D3032017E100F07E
:1050000085FA05463068810305D500F07FFA401B1C
:105010006528F7D3F1E72078874F810718D5B06866
:1050200010F00C0F07D0B06800F00C00082823D156
:105030007068410220D43068810702D5E0680128F9
:10504000B1D13168206921F0F80141EAC001316035
:105050002178080742D56069784990B301220A6037
:1050600000F054FA0546706F810737D400F04EFA0D
:10507000401B0228F7D9C0E7E068A8B101213960D8
:1050800000F044FA05463068810705D400F03EFA86
:10509000401B0228F7D9B0E73068216920F0F800FA
:1050A00040EAC1003060D3E7386000F02FFA0546CF
:1050B00031688807CCD500F029FA401B0228F7D9BF
:1050C0009BE7086000F022FA0546706F810705D55E
:1050D00000F01CFA401B0228F7D98EE72078410720
:1050E00060D5306C0025C1000BD400200090012554
:1050F000316C41F080513164306C00F08050009090
:105100000098DFF83C81D8F80000C10513D4D8F826
:10511000000040F48070C8F8000000F0F7F9814604
:10512000D8F80000C10506D400F0F0F9A0EB0900A2
:105130000228F5D961E7A068012805D00528306F5D
:1051400006D140F004003067306F40F0010005E008
:10515000400840003067306F20F00400306741F2B3
:105160008938A06860B100F0D1F98146306F8107BD
:1051700013D400F0CBF9A0EB09004045F6D33CE78F
:1051800000F0C4F98146306F810706D500F0BEF902
:10519000A0EB09004045F6D32FE71DB1306C20F09D
:1051A00080503064A069002840D0B16801F00C0143
:1051B00008293FF4F8AE02282AD10020386600F012
:1051C000A5F905463068810105D500F09FF9401B1F
:1051D0000228F7D911E7E069216A626A0843A16AE7
:1051E000490840EA8210491E40EA0140E16A40EA6B
:1051F000016070600120386600F088F9044630686C
:10520000810113D400F082F9001B0228F7D9F4E6DB
:105210000020386600F07AF904463068810105D52F
:1052200000F074F9001B0228F7D9E6E60020BDE87B
:10523000F28300BF0038024000004742800E474220
:10524000007000402DE9F04104000F4654D0584E44
:10525000306800F00F00B84202D200F072F84BD173
:105260002068544D810712D5400703D5A96841F441
:10527000E051A9602078010703D5A86840F4604098
:10528000A860A968A06821F0F0010143A960217815
:10529000C80729D56068012802D129688A0305E07A
:1052A000022818BF032803D129688A0103D423E008
:1052B00029688A0720D5A968890840EA8100A86082
:1052C00000F024F98046A868616800F00C00B0EB9B
:1052D000810F09D000F01AF9A0EB080041F28931E2
:1052E0008842F0D303202AE0306800F00F008742A4
:1052F00004D200F026F801D0012020E020784107F8
:1053000005D5AA68E06822F4E0520243AA60217839
:10531000080706D5A968206921F4604141EAC00167
:10532000A96001F09BFBAA682349244BC2F3031236
:10533000895CC8401860002000F08AFE0020BDE8AB
:10534000F0813770316801F00F01B94270471D4993
:105350000120086070471948194A006813681A4903
:10536000C3F3822206E01548154A006813681649FF
:10537000C3F34232895CC840704710B50F22026007
:105380000F4A136803F003034360146804F0F00449
:105390008460136803F4E053C3601268D20802F417
:1053A000E05202610248026802F00F020A6010BD7A
:1053B000003C024000380240FC7000081800002049
:1053C000083802404C00474268730008F8B50546AB
:1053D000444C287810F0050F20D0434E0020306058
:1053E00000F094F807462168080106D500F08EF811
:1053F000C01B0228F7D90320F2BDA968686800F035
:1054000069F8326000F082F806462068010105D490
:1054100000F07CF8801B0228F7D9ECE72878810798
:1054200056D500200090216C304F41F0805121640E
:10543000206C00F0805000900098396841F4807131
:10544000396000F063F806463868C10505D400F0FD
:105450005DF8801B0228F7D9CDE7206F10F440706B
:105460001EBFE96801F44071884219D0206F2049BD
:1054700001220A6000230B6020F440702067206F37
:10548000C1070DD500F042F80646206F810707D40A
:1054900000F03CF8801B41F289318842F5D3AAE73D
:1054A000E96801F44070B0F5407F07D1A268114867
:1054B00022F4F81201401143A16003E0A06820F437
:1054C000F810A060206FE968C1F30B010843206762
:1054D0000020F2BD090741EA80110748016001225E
:1054E00070470000003802406800474200700040EA
:1054F000400E4742FFFCFF0F8438024002484168DB
:1055000002788A18426070470C0000200148406809
:10551000704700BF0C0000207047000038B5040041
:105520002BD094F8200010B92046FEF7D2FA20685C
:10553000016821F002010160FFF7E8FF05462068DD
:105540004168880705D5FFF7E1FF401B0B28F6D31C
:1055500011E020680168024641F001011160FFF787
:10556000D5FF054620684168C80708D4FFF7CEFF7D
:10557000401B0B28F6D300F0E5F8012032BD207E59
:10558000012806D1216808680A4640F080001060B2
:1055900005E020680168024621F080011160607E0C
:1055A00000F03DF80CBF41F0400121F040010160E6
:1055B000A07E00F034F80CBF41F0200121F0200162
:1055C0000160E07E00F02BF80CBF21F0100141F0EB
:1055D00010010160207F00F022F80CBF41F00801AB
:1055E00021F008010160607F00F019F80CBF41F064
:1055F000040121F004010160A268E068216902430E
:1056000060690A43616802432068491E0A43C26117
:1056100000216162012084F82000002032BD0128B1
:10562000206801687047F0B590F82020012A18BF63
:10563000022A54D1474A106840F0010010601368F4
:1056400023F47C53136010684B6A40EA0320106017
:1056500001200B7D03F01F0300FA03F3D069DC4344
:105660002040D0613C4800F5117500F51076C869FE
:1056700058B9D0682040D060CF6800F034F80F6887
:10568000C7EA004C486945F830C0C86901280BD109
:10569000D0681843D0600F6800F025F8CE684F69D5
:1056A000C6EA004045F837008869002850680CBFFA
:1056B00020401843506008690028506907BF044023
:1056C000546118435061086A012802D1D06903432C
:1056D000D36100201168490849001160F0BD416A9A
:1056E00041F480213AE04868D1F814C0C0EA074785
:1056F00046F83C708868704738B5044694F8200036
:10570000012819D1022184F820102068026852086B
:1057100052000260FFF7FAFE054620684168C8079C
:1057200007D5FFF7F3FE401B0B28F6D300F00AF86D
:1057300006E00020606232BD606A40F400206062D2
:10574000012032BD606A40F400306062052184F8B7
:105750002010704700660040006400404162012054
:10576000F0BD416A41F48021416201207047F0B5EB
:1057700090F82040012C18BF022C66D10029046843
:1057800001D1E56800E0256915F0030F03D1416AF6
:1057900041F400115CE00D0104F5D876745914F061
:1057A00004049460066806F5D87603D17459640D34
:1057B000146002E07659F6085660046804F5D8765D
:1057C0007759C7F34004D46000F043F806F00F06A1
:1057D000166100F03EF8C6F30724946100F039F832
:1057E000360C566102682A44D2F8B8411C7006682B
:1057F0002E44D6F8B821120A5A7004682C44D4F802
:10580000B821120C9A7004682C44D4F8B821120EF6
:10581000DA7000F023F81A7100F020F8120A5A71B9
:1058200000F01CF8120C9A7100F018F8120EDA71E0
:10583000006821B9C16841F02001C16003E001693D
:1058400041F0200101610020F0BD416A41F4802156
:1058500084E704682C44D4F8B461704704682C448D
:10586000D4F8BC21704790F82020012A18BF022AE2
:1058700003D100684269114300E072E741610020F2
:1058800070472DE9F84F05464FF000082868466933
:10589000D0F804B08468D0F80C90D0F810A08769D4
:1058A000F10745D5E20713D501218160A00703D593
:1058B000284601F003F90BE0600748BF4FF4006889
:1058C00006D420074EBF4FF48058284601F0F7F861
:1058D000E00515D52A684FF48071A005916003D5C5
:1058E000284601F0EDF80BE0600548BF48F4005889
:1058F00006D420054EBF48F48048284601F0E1F860
:10590000E00315D52A684FF48031A003916003D5D8
:10591000284601F0D7F80BE0600348BF48F4004880
:1059200006D420034EBF48F48038284601F0CBF857
:10593000300748BF5FEAC96104D52968102048F4E0
:105940000078C860700748BF5FEA097105D5082074
:105950002A68D060284601F0B7F8B00707D5296853
:10596000C86810F0030F1CBF2846FEF71DF970062B
:1059700048BF5FEACA6104D52968102048F48068EE
:105980000861B00648BF5FEA0A7105D508202A6899
:105990001061284601F099F8F00607D529680869D2
:1059A00010F0030F1CBF284601F090F8B00348BF69
:1059B0005FEACB6105D52A6810205060284601F0C7
:1059C00086F8F00348BF5FEA0B7105D52A68082006
:1059D0005060284601F07CF8300440D55FEA4B71F6
:1059E0003AD5F00503D5F90748BF48F00108B005DE
:1059F00003D5B90748BF48F00208700503D57907F9
:105A000048BF48F00408300526D517F0700F23D0A2
:105A100007F07007102F0CD0202F0DD0302F0ED094
:105A2000402F0FD0502F10D0602F08BF48F480783F
:105A30000DE048F008080AE048F0100807E048F0D8
:105A4000200804E048F0400801E048F08008286899
:105A5000816921F070018161042029684860B8F1F2
:105A6000000F09D0686A48EA0008C5F82480284673
:105A7000BDE8F24F01F02DB8BDE8F18F0901020039
:105A800002D42D48815470472C4B02F00F021A4467
:105A900002F8041C70472A4B19684FF6FF020002F7
:105AA000114000F4E060084326490843186070473D
:105AB00070B5234B1C68C4F302230124C3F107050E
:105AC000052D2EBF0F2504FA05F56D1E1E1D072E90
:105AD00034BF0023DB1E2940994004FA03F3BDE8DC
